:100000000088FF1FFD0600001B3F0000D13E0000DE
:1000100000000000000000000000000000000000E0
:100020000000000000000000000000004D0700007C
:1000300000000000000000004D0700004D07000018
:100040004D0700004D0700004D0700004D07000060
:100050004D0700004D0700004D0700004D07000050
:100060004D0700004D0700004D0700004D07000040
:1000700055410000654100004D0700004D0700009C
:100080004D0700004D0700004D0700004D07000020
:100090004D0700004D0700004D0700004D07000010
:1000A000713D00004D0700004D0700004D070000A6
:1000B000D53E0000D53E0000D53E0000D53E0000F4
:1000C0004D0700004D0700004D0700004D070000E0
:1000D0004D070000754100004D0700004D0700006E
:1000E0004D0700004D0700004D0700004D070000C0
:1000F0004D0700004D0700004D0700004D070000B0
:100100004D0700004D0700004D0700004D0700009F
:100110004D0700004D0700004D0700004D0700008F
:100120004D0700004D0700004D0700004D0700007F
:100130004D0700004D0700004D0700004D0700006F
:10040000C0DEFACEABBAFEEDFFFFFFFFBE3BFFFF43
:10041000002243088B4274D303098B425FD3030A43
:100420008B4244D3030B8B4228D3030C8B420DD356
:10043000FF22090212BA030C8B4202D312120902E4
:1004400065D0030B8B4219D300E0090AC30B8B4222
:1004500001D3CB03C01A5241830B8B4201D38B03D0
:10046000C01A5241430B8B4201D34B03C01A524175
:10047000030B8B4201D30B03C01A5241C30A8B42B8
:1004800001D3CB02C01A5241830A8B4201D38B02A3
:10049000C01A5241430A8B4201D34B02C01A524147
:1004A000030A8B4201D30B02C01A5241CDD2C309B9
:1004B0008B4201D3CB01C01A524183098B4201D335
:1004C0008B01C01A524143098B4201D34B01C01A20
:1004D000524103098B4201D30B01C01A5241C30898
:1004E0008B4201D3CB00C01A524183088B4201D307
:1004F0008B00C01A524143088B4201D34B00C01AF3
:100500005241411A00D20146524110467047FFE75E
:1005100001B5002000F0F0F802BDC0460029F7D078
:1005200076E7704703460B437FD4002243088B4293
:1005300074D303098B425FD3030A8B4244D3030B6A
:100540008B4228D3030C8B420DD3FF22090212BA2F
:10055000030C8B4202D31212090265D0030B8B42AB
:1005600019D300E0090AC30B8B4201D3CB03C01A95
:100570005241830B8B4201D38B03C01A5241430B70
:100580008B4201D34B03C01A5241030B8B4201D360
:100590000B03C01A5241C30A8B4201D3CB02C01ACB
:1005A0005241830A8B4201D38B02C01A5241430A43
:1005B0008B4201D34B02C01A5241030A8B4201D332
:1005C0000B02C01A5241CDD2C3098B4201D3CB01D9
:1005D000C01A524183098B4201D38B01C01A524188
:1005E00043098B4201D34B01C01A524103098B428C
:1005F00001D30B01C01A5241C3088B4201D3CB0077
:10060000C01A524183088B4201D38B00C01A524159
:1006100043088B4201D34B00C01A5241411A00D209
:1006200001465241104670475DE0CA0F00D0494272
:10063000031000D34042534000229C4603098B42E2
:100640002DD3030A8B4212D3FC22890112BA030A6A
:100650008B420CD3890192118B4208D389019211EC
:100660008B4204D389013AD0921100E08909C30971
:100670008B4201D3CB01C01A524183098B4201D373
:100680008B01C01A524143098B4201D34B01C01A5E
:10069000524103098B4201D30B01C01A5241C308D6
:1006A0008B4201D3CB00C01A524183088B4201D345
:1006B0008B00C01A5241D9D243088B4201D34B0060
:1006C000C01A5241411A00D20146634652415B10A2
:1006D000104601D34042002B00D549427047634683
:1006E0005B1000D3404201B5002000F005F802BDC8
:1006F0000029F8D016E770477047C04600F028F888
:100700000B480C490C4A121A03F0FAFB0B48002163
:100710000B4A121A03F0FBFB0A48A5210A4A121AD7
:1007200003F0F5FB00F0B4F804F042FAFEE7000035
:100730000088FF1FCC500000C88AFF1FC88AFF1F17
:10074000E68CFF1F0080FF1F0088FF1F00BEFDE733
:1007500080B500AF444BFA2292009A60424B434A64
:100760001A60434982235B0080225202CA50404AE9
:1007700084235B003F49D1503D4A80235B000F2119
:10078000D150C0463A4A80235B00D25880235B0494
:100790001340F7D0364AC1239B003749D150344A21
:1007A000C2239B000021D150314AC0239B00072166
:1007B000D150C0462E4AC0239B00D25880235B04F0
:1007C0001340F7D02A492D4AC0239B028B50284A58
:1007D000C123DB002A49D150254AC023DB00294927
:1007E000D150C046224AC023DB00D25880235B048C
:1007F0001340F7D01E4B244A5A61C0461C4B1A695D
:10080000F0231B051A40C023DB049A42F6D1184A94
:1008100080239B000021D150C046154A80239B00B5
:10082000D25880235B041340F7D1114981239B00E8
:1008300080225202CA500E4A82239B000121D150CD
:100840000B4A80239B000721D150C046084A8023D1
:100850009B00D25880235B041340F7D0044B0B4A13
:100860009A61C046BD4680BD00600740A0210000DF
:1008700000B00740140C0000010001000406000055
:100880000103080003000304020001060300000244
:1008900080B584B000AF414B1B691B0C9BB20F228B
:1008A00013409AB20A23FB1801321A803B4B1B6992
:1008B0001B0E0F221340022B0BD002D8012B05D0A8
:1008C00069E0032B11D0062B1CD064E0344BFB6095
:1008D00056E0324A82239B00D3580122134001D0B4
:1008E000304B00E0304BFB604AE02C4AC2239B00B7
:1008F000D358032213402A4A53432C4A9446634454
:10090000FB603DE0254AC123DB00D35801221340A0
:100910000CD0224AC2239B00D35803221340204A02
:100920005343224A94466344FB6001E01C4BFB6046
:100930001A4AC123DB00D3581B0A9BB2072213407B
:100940009AB20823FB1801321A80144AC123DB0033
:10095000D3581B0C9BB21F2213409AB2BB1D1032FE
:100960001A80BB1D1B88FA685A430823FB181B8892
:100970005B0019001000FFF74BFD0300FB60C04651
:100980000A23FB181B881900F868FFF741FD0300D4
:100990001A00074B1A60BD4604B080BD00B0074086
:1009A00000093D0000127A0080841E00006CDC0209
:1009B0000088FF1F90B587B000AFF86008001100F5
:1009C0007B600B23FB18021C1A700A23FB180A1CFD
:1009D0001A700B23FB181B785A000A23FB181B788C
:1009E00013437B611023FB18180002F0CBF8FA6860
:1009F0007B6928211B01D3185B185A7940210A43CF
:100A00005A71FB685B685B0A5A020B23FB181B7860
:100A10005901F0235B000B401A430A23FB181B7893
:100A20001B0110210B401A43F9687B6928201B0128
:100A3000CB181B185B79DB06DB0FDBB2DB00134343
:100A400004337A681A60FB685B685B0A5A020B23FE
:100A5000FB181B785901F0235B000B401A430A2353
:100A6000FB181B781B0110210B401A43F9687B69A6
:100A700028201B01CB181B185B79DB06DB0FDBB2D0
:100A8000DB001343BA6A120412491140F8687A690C
:100A9000282412018218121952791207D20FD2B2E9
:100AA00092010A4388210A431A603B69180002F048
:100AB00079F8FB689A68FB689B6894215B5CDBB201
:100AC00020218B43D9B29423D15400231800BD4672
:100AD00007B090BD0000FF0380B584B002AF78601E
:100AE0007B680C331A007B682D215B5CDB06DB0F17
:100AF000DBB2DB00D2187B681A627B6800229A6244
:100B00007B6808225A627B682C229B185A78202125
:100B10000A435A707B682C229B185A7808218A4312
:100B20005A707B681A6A78680823009313000022C1
:100B30000021FFF73FFFC046BD4602B080BD80B533
:100B400084B000AF78607B689B688822FF2199544D
:100B50007B689A687B689B6894215B5CDBB20221AE
:100B60000B43D9B29423D1547B689B68982200210F
:100B700099540F23FB1800221A7063E07B685B68AE
:100B80005B0A5A020F23FB181B785901F0235B0004
:100B90000B40134300221A607B685B685B0A5A02B1
:100BA0000F23FB181B785901F0235B000B40134304
:100BB0000822134300221A607B685B685B0A5A02B2
:100BC0000F23FB181B785901F0235B000B401343E4
:100BD0001022134300221A607B685B685B0A5A028A
:100BE0000F23FB181B785901F0235B000B401343C4
:100BF0001822134300221A600F23FB181B785B0096
:100C00007A681B01D3182C3300221A600F23FB18BB
:100C10001B785B00012213437A681B01D3182C3325
:100C200000221A607B689B680F22BA181278303253
:100C300092000021D1540F23FB181A780F23FB18C0
:100C400001321A700F23FB181B78032B96D97B688F
:100C5000A022002199547B689A687B689B68942144
:100C60005B5CDBB202218B43D9B29423D1547B6805
:100C70009B688C22FF2199540E23FB1889221A703D
:100C80007B689B680E22BA18842112785A547B68BC
:100C9000A122002199547B689A687B689B68942103
:100CA0005B5CDBB220218B43D9B29423D154C04684
:100CB000BD4604B080BD000080B584B000AF786050
:100CC00039600E23FB183A6812881A803B689A78BC
:100CD0000D23FB180F210A401A703B689A780C23E9
:100CE000FB18D2091A700D23FB181B78DB18D9B238
:100CF0000B23FB180C22BA1812780A431A703B68AF
:100D0000DB78012B0AD10E23FB181B88534A934230
:100D100023D90E23FB18514A1A801EE00E23FB181C
:100D20001B88402B03D90E23FB1840221A807B68B6
:100D30009A680D23FB1819787B689B680D2038187A
:100D4000007830308000C35CDBB201200343D8B2AE
:100D50000B0030339B00011C99540B23FB181B78AC
:100D60007A6828211B01D3185B185A7940218A43DD
:100D70005A710B23FB181B780E22BA1812889205A1
:100D8000920D92B2796828201B01CB181B1892058E
:100D9000900D9A88920A9202111C021C0A439A80B2
:100DA0000B23FB181B787A6828211B01D3185B18CA
:100DB0005A7908218A435A710B23FB181B787A68E9
:100DC00028211B01D3185B185A7904218A435A71D0
:100DD0000B23FB181B783A681279111C01220A4078
:100DE000D2B2796828201B01CB181B18D0015A7980
:100DF0007F210A40111C021C0A435A717B689A68C1
:100E00000D23FB1819787B689B680D203818007833
:100E100030308000C35CD8B20C23FB181B78012B48
:100E200001D1042300E008230343D8B20B00303380
:100E30009B00011C99540D23FB181B78002B08D133
:100E40000C23FB181B78002B03D17B681800FFF7DD
:100E500043FE00231800BD4604B080BDFF03000020
:100E600080B584B000AF78600A00FB1C1A700F23B5
:100E7000FB18FA1C12780F210A401A700E23FB1877
:100E8000FA1C1278D2091A700F23FB181B78DB1892
:100E9000D9B20D23FB180E22BA1812780A431A7021
:100EA000FB1C1A787B681100180000F0DAFE7B68E2
:100EB0009B680F22BA181278303292000021D15468
:100EC0000D23FB181B787A6828211B01D3185B18A7
:100ED0009A88920A92029A8000231800BD4604B0B4
:100EE00080BD80B584B000AF78600A00FB1C1A702A
:100EF0000F23FB18FA1C12780F210A401A700E23D8
:100F0000FB18FA1C1278D2091A700F23FB181B78F1
:100F1000DB18D9B20D23FB180E22BA1812780A4337
:100F20001A70FB1C1A787B681100180000F099FEFB
:100F30000D23FB181B787A6828211B01D3185B1836
:100F40005A7904210A435A717B685B685B0A5A022A
:100F50000F23FB181B785901F0235B000B401A4349
:100F60000E23FB181B781B0110210B401A430D2385
:100F7000FB181B78796828201B01CB181B185B799C
:100F8000DB06DB0FDBB2DB0013430D22BA1812784D
:100F90007968282012018A18121892889205920DF9
:100FA00092B212048C210A431A607B689A687B68AB
:100FB0009B6894215B5CDBB220218B43D9B29423E4
:100FC000D15400231800BD4604B080BD80B584B064
:100FD00000AF78600A00FB1C1A700E23FB18FA1C85
:100FE00012780F210A401A700D23FB18FA1C127890
:100FF000D2091A700E23FB181B78DB18D9B20C2308
:10100000FB180D22BA1812780A431A700C23FB1829
:101010001B787A6828211B01D3185B185A790421A0
:101020008A435A710C23FB181B787A6828211B010C
:10103000D3185B185A7908218A435A710F23FB1879
:1010400000221A7050E07B685B685B0A5A020E232C
:10105000FB181B785901F0235B000B401A430D234A
:10106000FB181B781B0110210B401A430F23FB18A0
:101070001B78DB0008210B4013431B68BB60BB6877
:101080000422134029D07B685B685B0A5A020E2356
:10109000FB181B785901F0235B000B401A430D230A
:1010A000FB181B781B0110210B401A430F23FB1860
:1010B0001B78DB0008210B4013430C22BA1812786E
:1010C0007968282012018A18121892889205920DC8
:1010D00092B2120408210A431A600F23FB181A78EF
:1010E0000F23FB1801321A700F23FB181B78012BFA
:1010F000A9D97B689A680E23FB1819787B689B68CE
:101100000E203818007830308000C35CDBB202203B
:101110008343D8B20B0030339B00011C99540E233B
:10112000FB181B78002B08D10D23FB181B78002B14
:1011300003D17B681800FFF7CFFC7B689A687B6857
:101140009B6894215B5CDBB220218B43D9B2942352
:10115000D15400231800BD4604B080BD90B593B0B3
:1011600002AF78607B689A683B23FB189021525C41
:101170001A703A23FB183B22BA18127812091A7017
:101180003B23FB181B78DB08DAB23923FB1801215B
:101190000A401A703B23FB181B789B08DAB23823ED
:1011A000FB1801210A401A707B689B688022082185
:1011B00099547B685B685B0A5A023A23FB181B78D8
:1011C0005901F0235B000B401A433923FB181B78AD
:1011D0001B0110210B401A433823FB181B78DB003E
:1011E00008210B4013431B687B637B685B685B0AC9
:1011F0005A023A23FB181B785901F0235B000B407D
:101200001A433923FB181B781B0110210B401A438A
:101210003823FB181B78DB0008210B4013430433F1
:101220001B683B637B6B1B0C9B059B0DFB627B6B05
:101230009B08DBB21A000F2313400D2B01D10122B2
:1012400000E000222B23FB181A703A23FB181B78AE
:10125000DB18D9B22A23FB183922BA1812780A43AC
:101260001A702A23FB181B787A6828211B01D318CF
:101270005B185B795B06DB0FDBB2002B00D184E2ED
:101280002B23FB181B78002B05D07B683822BA185B
:10129000A32112785A543923FB181B78012B00D054
:1012A00009E12A23FB1818782A23FB181B787A688F
:1012B0001B01D31828331A68FB6AD2187968030116
:1012C000CB1828331A602A23FB181B787A6802335C
:1012D0001B01D31804331A682A23FB181B7879687A
:1012E0001B01CB1828331B68D31A7B622A23FB18F7
:1012F0001B782A22BA1812787968282012018A18D5
:10130000121852791207D20FD2B201214A40D2B23A
:10131000796828201B01CB181B1801210A40D00036
:101320005A7908218A43111C021C0A435A712A2344
:10133000FB181B782A22BA18127879682820120123
:101340008A1812185279D206D20FD2B201214A401D
:10135000D2B2796828201B01CB181B1801210A4042
:1013600010015A7910218A43111C021C0A435A7138
:101370007B6A002B10D02A23FB181B787A6828215F
:101380001B01D3185B189B889B059B0D9BB21A0011
:10139000FB6A9A4200D87BE02A23FB181B787A6804
:1013A0001B01D31828331A680C23FB185A602A2310
:1013B000FB181A787B6802321201D2580C23FB18F2
:1013C0001A602A23FB181B787A6828211B01D3187E
:1013D0005B185A7940218A435A71FB6A002B00D16D
:1013E000AAE12A23FB181B787A6828211B01D3184D
:1013F0005B189B889B059B0D9BB21A00FB6A110032
:101400001800FFF78BF80B1E00D095E13A23FB186C
:101410001B78002B22D17B68A3229B5CDB00083366
:101420007A68D31804333B623B6ADB8819002A23AD
:10143000FB181B787A6802331B01D31804331B682E
:10144000994200D878E13A23FB181978786800238C
:10145000009300230122FFF7ADFA97E12A23FB183E
:101460001B787A6828211B01D3185B185B791B064F
:10147000DB0FDBB2002B00D15EE13A23FB181978B9
:1014800078680023009300230122FFF793FA7DE19F
:101490003A23FB181B78802252421343D9B22A23E5
:1014A000FB181A787B6802321201D2587B6A78687E
:1014B00000F07BFA6AE13A23FB181B78002B0BD172
:1014C000FB6A002B08D10C23FB1800225A600C2366
:1014D000FB1800221A6030E12A23FB181B787A6877
:1014E00028211B01D3185B185B799B06DB0FDBB24D
:1014F000002B47D17B685B685B0A5A023A23FB18D2
:101500001B785901F0235B000B401A432A23FB1878
:101510001B78796828201B01CB181B185B79DB0628
:10152000DB0FDBB2DB00134304331B68FB612A23B0
:10153000FB181A787B6802321201D2582A23FB1852
:101540001B7879681B01CB1828331B68D318BB6143
:10155000FA69BB699A4211D00023FB630AE0BA69B9
:10156000FB6BD318F969FA6B8A1812781A70FB6B47
:101570000133FB63FA6BFB6A9A42F0D37B68A022CB
:10158000002199542A23FB1818782A23FB181B786A
:101590007A681B01D31828331A68FB6AD218796855
:1015A0000301CB1828331A602A23FB181B787A68AA
:1015B00002331B01D31804331A682A23FB181B7843
:1015C00079681B01CB1828331B68D31A7B623A2336
:1015D000FB181B78002B13D12B23FB181B78002B37
:1015E0000ED07B682C229B185A7808210A435A7027
:1015F0007B683C229B185A7808210A435A7020E0E5
:101600002A23FB181B782A22BA1812787968282016
:1016100012018A18121852791207D20FD2B2012180
:101620004A40D2B2796828201B01CB181B1801212F
:101630000A40D0005A7908218A43111C021C0A432F
:101640005A712A23FB181B782A22BA181278796853
:10165000282012018A1812185279D206D20FD2B25B
:1016600001214A40D2B2796828201B01CB181B18EF
:1016700001210A4010015A7910218A43111C021CD1
:101680000A435A712A23FB181B787A6802331B011C
:10169000D31804331B68002B12D07B6A002B0FD0A9
:1016A0002A23FB181B787A6828211B01D3185B18A2
:1016B0009B889B059B0D9BB21A00FB6A9A422BD913
:1016C0002A23FB181B787A681B01D31828331A6861
:1016D0000C23FB185A602B23FB181B78002B04D01B
:1016E0000C23FB183A6B1A6009E02A23FB181A78BE
:1016F0007B6802321201D2580C23FB181A602A238D
:10170000FB181B787A6828211B01D3185B185A79BB
:1017100040218A435A7110E02A23FB181A787B680B
:1017200002321201D2587C6A3A23FB181978786881
:10173000230000F0D7F929E0C0460C23FB182B2228
:10174000BA1812785A723923FB181B78DB01DAB207
:101750003A23FB181B781343DAB20C23FB181A72D6
:101760007B681B680C22BA181100180000F08FFE6D
:101770007B689A687B689B6894215B5CDBB2202164
:101780008B43D9B29423D15400E0C046BD4611B07A
:1017900090BD80B586B000AF78607B68A122012142
:1017A00099547B689B688022012199540C23FB1873
:1017B00000221A600C23FB1810221A720C23FB184B
:1017C00000225A600C23FB1800225A727B681B68A7
:1017D0000C22BA181100180000F059FEC046BD4690
:1017E00006B080BD80B582B000AF786004E07B6851
:1017F0009B688022802199547B689B6880229B5C37
:10180000DBB25BB2002BF2DB7B683D229B5C0422E7
:101810001340DBB2002B07D17B682D229B5C042296
:101820001340DBB2002B09D07B6880211800FFF742
:10183000CDFB7B6800211800FFF7C8FBC046BD4602
:1018400002B080BD80B586B000AFB9607A600F236A
:10185000FB18021C1A70354B3B610F23FB181B78D9
:10186000002B04DC0F23FB181B78002B01D0062370
:1018700058E00F23FB181B78A4225A432C4BD31893
:101880007B617B690F22BA18A22112785A540F2368
:10189000FB181B789B0018229446BC446344083B09
:1018A0001B681A007B699A600F23FB181B789A014A
:1018B000204BD2187B69DA617B699B688022FF210B
:1018C00099547B6900220121180000F021FA0F23AE
:1018D000FB181B785A02184BD2187B695A607B6937
:1018E0009A687B695B681B0AD9B29C23D1547B69D7
:1018F0009A687B695B681B0CD9B2B023D1547B69B1
:101900009A687B695B681B0ED9B2B423D1547B699A
:101910001800FFF714F97B687A691A607B69BA6866
:101920001A6000231800BD4606B080BD0050054077
:1019300000021040A40210400000104080B584B0A6
:1019400000AF78607B68FB607B68002B01D10323CC
:1019500027E0FB689B688022FF219954FB689B6805
:1019600084229B5CFB689B68842200219954FB685D
:101970009B68982200219954FB689B68942200215F
:101980009954FB689A68FB68996880235B00CB5C7C
:10199000DBB2402149420B43D9B280235B00D154D2
:1019A00000231800BD4604B080BD90B58BB002AFD7
:1019B000F8607A603B600B23FB180A1C1A70FB6806
:1019C000BB610B23FB181B785B001E221340012216
:1019D00013437B611F23FB1801221A70BA697B69CC
:1019E00028211B01D3185B185B795B06DB0FDBB288
:1019F000002B1ED1BA697B691B01D3182833002242
:101A00001A60BB697A69023212017968D150BA69E9
:101A10007B6902331B01D31804333A681A60BA6930
:101A20007B6928211B01D3185B185A7920210A43AE
:101A30005A71BA697B6928211B01D3185B189B88EE
:101A40009B059B0D9BB21A003B689A420AD2BA6969
:101A50007B6928211B01D3185B189B889B059B0D74
:101A60009BB23B60BB69A1229B5C002B1ED10B2368
:101A7000FB181B780F221340D9B2BB697A69023276
:101A80001201D3581800BA697B691B01D318283397
:101A90001B68C3181A001F23FC18B8693B68009321
:101AA00013000122FEF786FF03002370BA697B69E9
:101AB0001B01D31828331B68002B0CD13B68002B6B
:101AC00009D10B23FB181B780F22134003D1BB69EC
:101AD0001800FFF701F81F23FB181B781800BD46FC
:101AE00009B090BD90B58BB002AFF8607A603B60F2
:101AF0000B23FB180A1C1A70FB68BB610B23FB1835
:101B00001B785B001E2213407B611F23FB18012200
:101B10001A703B68002B14D10B23FB181B780F2283
:101B200013400ED1BA697B6928211B01D3185B18B9
:101B30005A7940218A435A71BB691800FEF7CCFFDD
:101B400088E0BA697B6928211B01D3185B185B798F
:101B50005B06DB0FDBB2002B14D1BA697B691B017A
:101B6000D318283300221A60BB697A690232120145
:101B70007968D150BA697B6902331B01D3180433E9
:101B80003A681A60BA697B6928211B01D3185B186F
:101B90005A7920210A435A71BA697B6928211B01AD
:101BA000D3185B189B889B059B0D9BB21A003B6862
:101BB0009A420AD2BA697B6928211B01D3185B18A3
:101BC0009B889B059B0D9BB23B60BA697B691B019F
:101BD000D31828331A687B68D3187B60BB69DB692C
:101BE000002B20D0BB69A0229B5C002B1BD13B6843
:101BF000402B18D83B680322134003D17B68032293
:101C0000134010D0BA697B6928211B01D3185B18D7
:101C10005A7920218A435A71BB69DB697B60BB69B1
:101C2000A02201219954BB69A1229B5C002B11D1F8
:101C30000B23FB181B780F221340D9B21F23FC186B
:101C40007A68B8693B68009313000022FEF7B2FE81
:101C5000030023701F23FB181B781800BD4609B032
:101C600090BD80B588B000AF78600A00FB1C1A7088
:101C70007B68FB61FB1C1B78DB18DBB21E22134068
:101C8000D9B2FB1C1B78DB09DAB21B23FB180A4311
:101C90001A701B23FB181B78FA6928211B01D31823
:101CA0005B185B795B06DB0FDBB2002B2BD00C23C0
:101CB000FB18012252425A601B23FB181A78FB6959
:101CC00002321201D2580C23FB181A600C23FB18A5
:101CD000FA1C12781A720C23FB1800225A721B236A
:101CE000FB181B78FA6928211B01D3185B185A7955
:101CF00040218A435A71FB691B680C22BA181100F3
:101D0000180000F0C4FB00231800BD4608B080BDD9
:101D100090B58BB000AFF8607A600B23FB180A1CFB
:101D20001A70FB683B622723FB1801221A70FB68BC
:101D3000002B01D103231DE10B23FB181B78122B71
:101D400000D903E19A008D4BD3181B689F463B6A6C
:101D50009A6880235B000021D1543B6A9A683B6AF1
:101D6000996884235B00CB5CDBB210210B43D9B2B2
:101D700084235B00D1543B6A9A683B6A9B68942138
:101D80005B5CDBB201210B43D9B29423D1542723EE
:101D9000FB1800221A70EAE03B6A9A683B6A99686D
:101DA00084235B00CB5CDBB210218B43D9B284234C
:101DB0005B00D1542723FB1800221A70D7E07B6800
:101DC000002B00D1C4E02723FC187A683B6A11007D
:101DD0001800FEF771FF03002370B9E07B68002B49
:101DE00000D1B7E07B68FB61FB691A782723FC18F8
:101DF0003B6A11001800FFF733F803002370A9E0D5
:101E00007B68002B00D1A7E07B68FB61FB691A7837
:101E10002723FC183B6A11001800FFF762F8030043
:101E2000237099E07B68002B00D197E07B68FB6111
:101E3000FB691A782723FC183B6A11001800FFF78A
:101E4000C5F80300237089E07B68002B00D187E090
:101E50007B68BB61BB6901221A802723FB18002223
:101E60001A707DE07B68002B00D17BE07B687B6192
:101E70007B691B781A000F231340032B00D971E0F4
:101E80007B691B785B001E2213407A691278D209A5
:101E9000D2B213433A6A28211B01D3185B185B792D
:101EA0005B07DB0FDBB29AB27B695A802723FB18F2
:101EB00000221A7056E07B68002B55D07B68FB61CE
:101EC0003B6A9B68FA691178982299542723FB187A
:101ED00000221A7048E02623FB1800221A701AE02C
:101EE0002623FB181B78802252421343DAB23B6A46
:101EF00011001800FEF7B4FF2623FB181A783B6A7E
:101F000011001800FEF7ACFF2623FB181A782623D1
:101F1000FB1801321A702623FB181B78032BDFD91C
:101F20003B6A1800FEF70BFE2723FB1800221A70ED
:101F30001DE07B68002B19D07B68FB61FB690022E8
:101F40001A702723FB1800221A700FE0C0460EE01B
:101F5000C0460CE0C0460AE0C04608E0C04606E0C5
:101F6000C04604E0C04602E0C04600E0C046272369
:101F7000FB181B781800BD460BB090BDB04E00009A
:101F800080B586B000AF78607B687B617B68002B92
:101F900028D07B691B683B613B699A680F23FB185B
:101FA0008021525C1A700F23FB181B780822134003
:101FB00003D03B691800FFF7D1F80F23FB181B78FB
:101FC0000122134003D03B691800FFF7E2FB0F2307
:101FD000FB181B785BB2002B05DA3B691800FFF792
:101FE00001FC00E0C046BD4606B080BD80B584B0AF
:101FF00000AF02003960FB1D1A700823FB1818009F
:1020000000F0C0FD0023FB601FE02C49FA681300BC
:10201000DB009B1A1B015B58002B13D02749FA6881
:102020006D201300DB009B1A1B01CB181B181B78BB
:10203000FA1D12789A4205D1BB68180000F0B2FD73
:10204000012337E0FB680133FB60FB68002BDCD029
:102050000023FB6026E01949FA681300DB009B1A95
:102060001B015B58002B1AD11449FA686D2013002C
:10207000DB009B1A1B01CB181B18FA1D12781A7073
:10208000FA681300DB009B1A1B010C4A9A183B6884
:102090001A60BB68180000F085FD00230AE0FB68A9
:1020A0000133FB60FB68002BD5D0BB68180000F043
:1020B00079FD02231800BD4604B080BDE402104043
:1020C00080B584B000AF78600C23FB18180000F0D6
:1020D00059FD7B6800221A607B686D2200219954AB
:1020E000FB68180000F05EFD00231800BD4604B038
:1020F00080BD000080B584B000AF02003960FB1DD8
:102100001A700F23FB1806221A70FB1D1B78003370
:10211000012B07D83B68074A1A600F23FB180022DF
:102120001A7000E0C0460F23FB181B781800BD464C
:1021300004B080BDFC4E0000F0B589B000AFF8607F
:102140007A603B600B23FB180A1C1A70FB68BB61AA
:102150001F23FB1801221A701723FB180B22BA1831
:1021600012780F210A401A701623FB180B22BA1896
:102170001278D2091A70BB69002B01D103235DE0EC
:10218000BB695B68002B52D01723FB181B78DB1848
:10219000DAB21623FB181B781343DBB21900BA69B5
:1021A0000B005B005B189B00D31814331B78002BCB
:1021B00001D0022342E01723FB181B78DB18DAB2A8
:1021C0001623FB181B781343DBB21900BA690B0006
:1021D0005B005B189B00D318143301221A700B2389
:1021E000FB181B785BB2002B10DABB695B689D683B
:1021F000BB6918681F23FC183E687A680B23FB181C
:1022000019783300A8470300237014E0BB695B68AA
:10221000DD68BB6918681F23FC183E687A680B23C9
:10222000FB1819783300A8470300237003E01F232D
:10223000FB1806221A701F23FB181B781800BD46D6
:1022400009B0F0BDB0B586B000AFF8607A600B237E
:10225000FB180A1C1A70FB683B611723FB1801224C
:102260001A703B69002B01D103231AE03B695B68BC
:10227000002B0FD03B695B685D693B6918681723C9
:10228000FC187A680B23FB181B781900A847030079
:10229000237003E01723FB1806221A701723FB187C
:1022A0001B781800BD4606B0B0BD80B584B000AF45
:1022B000786039607B686F22012199547B68002225
:1022C0000E211800FFF7BEFF7B686E220221995491
:1022D0007B686C22002199540023FB6020E0796820
:1022E000FA6813005B009B189B00CB180C3300228C
:1022F0001A607968FA6813005B009B189B00CB1882
:10230000103300221A607968FA6813005B009B188A
:102310009B00CB18143300221A70FB680133FB605A
:10232000FB68072BDBD97B689B687868002201215A
:1023300098477B686F220021995400231800BD46FE
:1023400004B080BDB0B586B000AF786039603B683E
:102350001A7A1623FB180F210A401A703B681A7A62
:102360001523FB18D2091A701723FB1801221A70C3
:102370003B681B7A102B0AD11723FC183A687B683C
:1023800011001800FFF791FF0300237078E0162377
:10239000FB181B78032B72D81623FB181B78DB184D
:1023A000DAB21523FB181B781343DBB219007A68E5
:1023B0000B005B005B189B00D3180C331B68002BD1
:1023C0005DD03B681A680823FB181A603B685A689E
:1023D0000823FB185A603B685A7A0823FB181A72C4
:1023E0003B685B7A002B07D07B6800221A757B68FC
:1023F00020220021995413E01623FB181B78DB18C8
:10240000DAB21523FB181B781343DBB219007A6884
:102410000B005B005B189B00D318143300221A706A
:102420001623FB181B78DB18DAB21523FB181B7870
:102430001343DBB219007A680B005B005B189B004A
:10244000D3180C331D681623FB181B78DB18DAB27F
:102450001523FB181B781343DBB219007A680B00B5
:102460005B005B189B00D31810331A681723FC1805
:102470000823F9187B681800A84703002370C0469A
:102480001723FB181B781800BD4606B0B0BD80B5F9
:1024900084B000AF786039607B68FB603B68BB60EC
:1024A0003B68002B02D07B68002B01D103230CE09A
:1024B000FB689B68002B01D1012306E0BA68FB682A
:1024C00011001800FFF73EFF03001800BD4604B0DE
:1024D00080BDB0B588B000AFB9607A600F23FB183B
:1024E000021C1A7000237B617B68002B01D103233F
:1024F000BBE01B23FC181423FA180F23FB181B78CE
:1025000011001800FFF772FD030023701B23FB1856
:102510001B78002B03D01B23FB181B78A5E07B69DD
:10252000BA689A607B690F22BA186D2112785A54E2
:102530007B696C22002199547B696F220021995498
:102540000023FB6120E07969FA6913005B009B18A6
:102550009B00CB180C3300221A607969FA691300CA
:102560005B009B189B00CB18103300221A6079691E
:10257000FA6913005B009B189B00CB1814330022F0
:102580001A70FB690133FB61FB69072BDBD97B699F
:102590001A1D1B23FC180F23FB181B7811001800B1
:1025A000FFF7A8FD030023701B23FB181B78002BEB
:1025B00007D07B691800FFF783FD1B23FB181B78EE
:1025C00053E07B695B68002B05D17B691800FFF73E
:1025D00077FD062349E07B695B681B68002B18D0F8
:1025E0007B695B685B68002B13D07B695B689B68C9
:1025F000002B0ED07B695B68DB68002B09D07B6900
:102600005B681B69002B04D07B695B685B69002BEE
:1026100005D17B691800FFF753FD072325E07B698F
:102620005B681B6879697A6915001B22BC180F2248
:10263000BA1810782A009847030023701B23FB1850
:102640001B78002B07D07B69180000F021F81B23B2
:10265000FB181B7809E07B696E22022199547A6984
:102660007B681A601B23FB181B781800BD4608B056
:10267000B0BD80B582B000AF78607B6800220021D9
:102680001800FFF7DFFD03001800BD4602B080BD53
:1026900080B584B000AF78607B68FB60FB68002B7E
:1026A00001D1032312E0FB685B68002B09D0FB68B3
:1026B0005B685A68FB681B6818009047FB6800223B
:1026C0005A60FB681800FFF7FBFC00231800BD46AA
:1026D00004B080BD80B584B000AFF8607A603B6024
:1026E0000B23FB180A1C1A700B23FB181B780F22F4
:1026F0001340DBB2802252421343D9B23B687A685E
:10270000F868FFF719FD03001800BD4604B080BD4E
:1027100080B584B000AFF8607A603B600B23FB1893
:102720000A1C1A700B23FB181B780F221340D9B216
:102730003B687A68F868FFF7FFFC03001800BD46A5
:1027400004B080BD80B586B000AFF860B9607A6033
:10275000FB687B617B69002B01D1032360E0BB68D0
:10276000002B02D07B68002B01D1042358E0BB680A
:102770009A781323FB180F210A401A70BB689A78C5
:102780001223FB18D2091A701323FB181B78032B92
:1027900045D81323FB181B78DB18DAB21223FB1879
:1027A0001B781343DBB218007B681A687969030051
:1027B0005B001B189B00CB180C331A601323FB180B
:1027C0001B78DB18DAB21223FB181B781343DBB239
:1027D00018007B685A68796903005B001B189B002E
:1027E000CB1810331A601323FB181B78DB18DAB2EE
:1027F0001223FB181B781343DBB219007A690B0014
:102800005B005B189B00D318143300221A70BA685F
:10281000FB6802211800FFF715FD030000E0042308
:102820001800BD4606B080BD90B585B000AF786099
:102830000A00FB1C1A707B68FB60FB1C1A780B23D8
:10284000FB180F210A401A70FB1C1A780A23FB1888
:10285000D2091A700923FB1801221A70FB68002B99
:1028600001D103234FE00923FC18FA1C7B680321E4
:102870001800FFF7E7FC030023700B23FB181B78FD
:10288000032B3FD80B23FB181B78DB18DAB20A2383
:10289000FB181B781343DBB21900FA680B005B00CE
:1028A0005B189B00D3180C3300221A600B23FB1813
:1028B0001B78DB18DAB20A23FB181B781343DBB250
:1028C0001900FA680B005B005B189B00D3181033EB
:1028D00000221A600B23FB181B78DB18DAB20A23DC
:1028E000FB181B781343DBB21900FA680B005B007E
:1028F0005B189B00D318143300221A700923FB18AD
:102900001B7800E004231800BD4605B090BD80B5DB
:1029100082B000AF78600A00FB1C1A70FB1C1B78A9
:102920001A000F231340032B07D8FA1C7B680421DD
:102930001800FFF787FC030000E004231800BD46E1
:1029400002B080BD80B582B000AF78600A00FB1C89
:102950001A70FB1C1B781A000F231340032B07D897
:10296000FA1C7B6805211800FFF76CFC030000E0EF
:1029700004231800BD4602B080BD000090B587B0AA
:1029800000AFF8607A600B23FB180A1C1A7017233B
:10299000FB1801221A707B68002B01D104235CE034
:1029A0000B23FB181B78082B53D89A002D4BD318F8
:1029B0001B689F461723FC187A68FB680F211800D4
:1029C000FFF740FC0300237044E01723FC187A68EB
:1029D000FB6810211800FFF735FC0300237039E075
:1029E0007B683B611723FB1800221A70FB686E227C
:1029F0009A5C3B691A702DE07B683B611723FB18DA
:102A000000221A70FB686C229A5C3B691A7021E004
:102A10001723FC187A68FB6806211800FFF712FCE0
:102A20000300237016E01723FC187A68FB6807215F
:102A30001800FFF707FC030023700BE01723FC18B6
:102A40007A68FB6809211800FFF7FCFB030023707C
:102A500000E0C0461723FB181B781800BD4607B0DE
:102A600090BDC046144F000090B587B000AFF8602D
:102A70007A600B23FB180A1C1A701723FB1801221B
:102A80001A700B23FB181B78033B0B2B6BD89A0097
:102A90003B4BD3181B689F461723FC187A68FB68CA
:102AA00011211800FFF7CEFB0300237060E07B6864
:102AB000002B5AD01723FB1800221A707B68197854
:102AC000FB686E22995450E0FB686E229B5C032BDE
:102AD00010D07B68002B4AD01723FB1800221A70F5
:102AE0007B681978FB686C229954FB686E2203217D
:102AF00099543CE0FB686C331A001723FC18FB6800
:102B000008211800FFF79EFB030023702FE0172316
:102B1000FC187A68FB680A211800FFF793FB030092
:102B2000237025E01723FC187A68FB680B21180036
:102B3000FFF788FB030023701AE01723FC187A685C
:102B4000FB680C211800FFF77DFB030023700FE0EA
:102B50001723FC187A68FB680D211800FFF772FB39
:102B60000300237004E0C04602E0C04600E0C04617
:102B70001723FB181B781800BD4607B090BDC04650
:102B8000384F000080B584B000AF7860EFF3108359
:102B9000FB60FA687B681A6072B672B6C046BD46C2
:102BA00004B080BD80B584B000AF78607B68FB6006
:102BB000FB6883F31088C046BD4604B080BD0000AA
:102BC00090B587B000AFF860B9607A603B601723BA
:102BD000FB1805221A701623FA18FB680621180044
:102BE000FFF7CCFE1623FB181B78012B08D0162309
:102BF000FB181B78002B03D01723FB181B7861E010
:102C0000BB681B781A001F23134018D11723FC1828
:102C10002E4AFB6804211800FFF7B0FE0300237062
:102C20002A4B1B88032213409AB2284B1A80274B49
:102C30001A88264B1A803B6802221A603CE0BB6867
:102C40001B781A001F231340012B0AD11723FB18EE
:102C500000221A701D4B00221A803B6802221A6063
:102C60002AE0BB681B781A001F231340022B23D1D4
:102C7000BB689B88DAB21023FB181A701023FB186C
:102C800000225A801723FC181023FA18FB6805212C
:102C90001800FFF773FE030023701023FB185B88F6
:102CA000032213409AB2094B1A80084B1A88074B2B
:102CB0001A803B6802221A607B68044A1A60172354
:102CC000FB181B781800BD4607B090BDC88AFF1FCF
:102CD00090B587B000AFF860B9607A603B601723A9
:102CE000FB1805221A701623FB1800221A701523F0
:102CF000FA18FB6806211800FFF740FE1523FB18A1
:102D00001B78012B08D01523FB181B78002B03D050
:102D10001723FB181B7856E0BB685B78032B03D1A5
:102D20001623FB1801221A70BB681B781A001F2398
:102D3000134010D1BB685B88012B41D11723FC18CD
:102D40001623FB181A78FB681100180000F00AFE21
:102D50000300237034E0BB681B781A001F23134064
:102D6000022B2DD1BB685B88002B29D1BB689B88C7
:102D70001A000F23134015D11623FB181B78002BC4
:102D800008D0BB689B88DAB2FB6811001800FFF717
:102D9000BEFD07E0BB689B88DAB2FB681100180033
:102DA000FFF7D0FDBB689B88D9B21723FC18162308
:102DB000FB181A78FB68180000F0B4FF03002370BA
:102DC0001723FB181B781800BD4607B090BD90B5BF
:102DD00087B000AFF860B9607A603B601723FB18DA
:102DE00005221A701623FA18FB6806211800FFF74F
:102DF000C5FD1623FB181B78032B0DD01623FB18DB
:102E00001B78012B08D01623FB181B78022B03D04C
:102E10001723FB181B7837E01623FB181B78032BAE
:102E200011D0BB685B88DAB21623FB181A7017231F
:102E3000FC181623FA18FB6807211800FFF714FE88
:102E4000030023701DE01723FC18FB6800220721F4
:102E50001800FFF709FE030023701723FB181B78E7
:102E6000002B0ED11623FB1801221A701723FC1811
:102E70001623FA18FB6806211800FFF7F5FD03007A
:102E800023701723FB181B781800BD4607B090BDB0
:102E900080B586B000AFF860B9607A603B601723F8
:102EA000FA18FB6806211800FFF768FD1723FB18C6
:102EB0001B78012B0BD01723FB181B78002B06D097
:102EC0001723FB181B78022B01D0052306E07B6833
:102ED0003A68B968F86800F0E1FA03001800BD46E6
:102EE00006B080BD80B586B000AFF860B9607A608A
:102EF0003B601723FA18FB6806211800FFF73EFD18
:102F00001723FB181B78012B06D01723FB181B78FF
:102F1000002B01D005230CE03B6801221A607B687E
:102F2000064A1A60054AFB681100180000F08EFB83
:102F300003001800BD4606B080BDC046C88AFF1F0A
:102F400080B586B000AFF860B9607A603B60172347
:102F5000FA18FB6806211800FFF710FD1723FB186D
:102F60001B78012B06D01723FB181B78002B01D0F0
:102F7000052322E01723FB1800221A701723FA18E2
:102F8000FB6806211800FFF76FFDBB685B88002B0C
:102F90000AD11723FB1801221A701723FA18FB68AD
:102FA00006211800FFF760FDBB685B88DAB2FB689A
:102FB0001100180000F02CFB03001800BD4606B0FD
:102FC00080BD000080B586B000AFF860B9607A605F
:102FD0003B601723FB1805221A701623FA18FB68AA
:102FE00006211800FFF7CAFC1623FB181B78002BDC
:102FF00003D01723FB181B780EE03B6801221A60F0
:103000007B68074A1A60BB689B88D9B2044AFB6890
:10301000180000F04BFB03001800BD4606B080BD51
:10302000C88AFF1F80B586B000AFF860B9607A60CB
:103030003B601723FA18FB6806211800FFF79EFC77
:103040001723FB181B78002B01D005230AE0BB686F
:103050009B88D9B2BB685B88DAB2FB68180000F0C5
:1030600005FB03001800BD4606B080BD90B587B0D3
:1030700000AFF860B9607A603B601723FB18052247
:103080001A701623FA18FB6806211800FFF776FC61
:103090001623FB181B78002B03D01723FB181B7873
:1030A00016E0BB689A880C4B1A801723FC180A4A52
:1030B000FB6808211800FFF761FC030023707B68A0
:1030C000054A1A603B6802221A601723FB181B7816
:1030D0001800BD4607B090BDC88AFF1F90B587B0E5
:1030E00000AFF860B9601900FB1D1A70BB1D0A1C07
:1030F0001A701723FB1801221A701623FB180122DD
:103100001A70FB1D1B78052B25D1BB681B781A0094
:103110006023134010D0BB681B785BB2002B0BDB25
:10312000BB68DB88002B07D0BB1D1B78002B03D1AD
:103130001623FB1800221A701623FB181B78DB01DC
:10314000DAB21723FC18FB6811001800FFF7DFFB49
:10315000030023702AE0FB6A1B68BA68D288934296
:1031600004D9BB68DB881A00FB6A1A60BB6A1A685C
:10317000FB6A1B6817217C18F8680021FFF7AAFA80
:10318000030023701723FB181B78002B0ED1BB689C
:103190001B785BB2002B09DA1723FC18F8680023B0
:1031A00000220021FFF7B4FA030023701723FB1855
:1031B0001B781800BD4607B090BD0000B0B58EB0BA
:1031C00002AFF860B9607A600023FB610023BB6145
:1031D0002F23FB1805221A70BB685B68013303D1EB
:1031E0002F23FB181B78FCE02423FA18FB6811003E
:1031F000180000F089FB1723FA18FB680621180055
:10320000FFF7BCFBBB681B7A002B00D19FE0BB68BB
:103210005B68082B03D1BB681B68002B03D12F23ED
:10322000FB181B78DDE0BB681B68BB627B6ABA6A6F
:1032300052885A807B6ABA6A92889A807B6ABA6A94
:10324000D288DA807B6ABA6A52785A707B6ABA6A24
:1032500012781A707B6A1B781A006023134019D108
:103260007B6A5B781A00614B9200D358002B5BD0CD
:103270007B6A5B781A005D4B9200D558796A2F23E0
:10328000FC181823FB181C22BA18F868A84703007A
:10329000237049E07B6ADB88002B33D07B6A1B7884
:1032A0005BB2002B2EDB7B6ADB88002B16D07B6A9F
:1032B0001B781A002023134010D07B6ADB88BB6187
:1032C000796A2F23FC182023FB181822BA18F868F3
:1032D00000F02EFB030023700023BB612F23FB189B
:1032E0001B78002B20D13A6A7B6ADB882F217C185F
:1032F000F8680021FFF70CFA030023702F23FB1856
:103300001B786EE07B6A1B781A00202313400BD0D9
:10331000796A2F23FC181C23FB181822BA18F868A6
:1033200000F02CFB03002370796A2F23FC182F2355
:10333000FB181A78F8681823FB1801931C23FB1854
:1033400000930023FFF7CAFE0300237046E0172313
:10335000FB181B78032B11D17B6A5B781A00234B77
:103360009200D558796A2F23FC181823FB181C22C9
:10337000BA18F868A847030023702FE0BB685B68A1
:10338000002B2BD07B6ADB88002B27D07B6A1B7835
:103390005BB2002B22DB7B6A1B781A0020231340D0
:1033A0000AD0796ABB681A1DBB682F203C18F868E0
:1033B00000F0E4FA03002370796A2F23FC182F230E
:1033C000FB181A78F8681823FB1801931C23FB18C4
:1033D00000930123FFF782FE030023702F23FB18C5
:1033E0001B781800BD460CB0B0BDC046684F000049
:1033F00090B589B000AF78600C23FB18264A1A609C
:103400000C23FB187A685A601823FB1801221A71E2
:103410001823FB180022DA701823FB1880229A70F8
:103420001823FB1840221A801F23FC180C23FA18BB
:103430001823F9187B681800FFF784F9030023703C
:103440001F23FB181B78002B03D01F23FB181B78AE
:103450001EE01823FB1800229A701F23FC180C236F
:10346000FA181823F9187B681800FFF76BF90300A6
:1034700023701F23FB181B78002B08D07B6880214A
:103480001800FFF7D1F91F23FB181B7800E0002379
:103490001800BD4609B090BDBD31000080B586B0B2
:1034A00000AFF860B9607A603B60BB685B881B0A5C
:1034B0009AB21423FB181A70BB685A881323FB189E
:1034C0001A701723FB1800221A70BB685B78062B52
:1034D00001D0052391E01423FB181B78022B00D1A7
:1034E0007CE0032B03D0012B00D170E07DE013239F
:1034F000FB181B78002B08D1424B1A683B681A60F6
:10350000404B5A687B681A6074E01623FB1800224F
:103510001A701523FB1803221A7021E0BB689988E2
:10352000384B98681623FB181A7813005B009B1819
:103530009B00C3181B8999420BD11323FB181B78DE
:10354000022B13D81523FB181322BA1812781A70FD
:103550000CE01623FB181A781623FB1801321A7098
:103560001623FB181B78002BD8D000E0C04615238B
:10357000FB181B78032B03D11623FB1800221A70AB
:10358000204B99681623FB181A7813005B009B18D0
:103590009B00CB181A681523FB181B789B00D318C7
:1035A0001A683B681A60174B99681623FB181A783B
:1035B00013005B009B189B00CB185A681523FB185F
:1035C0001B789B00D3181A687B681A6012E03B686E
:1035D0000D4A1A607B6812221A600BE03B680B4AA6
:1035E0001A607B6843221A6004E01723FB18052247
:1035F0001A70C0461723FB181B781800BD4606B08A
:1036000080BDC046D888FF1F0488FF1F1888FF1F91
:1036100080B582B000AF78600A00FB1C1A70FB1CFA
:103620001B78002B01D101230AE0FB1C1A78064B02
:103630001A70FA1C7B680921180000F0A1FA030037
:103640001800BD4602B080BDCA8AFF1F80B582B097
:1036500000AF78603960044B1A783B681A70002319
:103660001800BD4602B080BDCA8AFF1F80B582B077
:1036700000AF786008001100FB1C021C1A70BB1C14
:103680000A1C1A70FB1C1B781900074BBA1C127815
:103690005A54FA1C7B680A21180000F071FA0300E2
:1036A0001800BD4602B080BDE48CFF1F80B584B019
:1036B00000AFF8607A600B23FB180A1C1A700B230A
:1036C000FB181B78044AD25C7B681A700023180030
:1036D000BD4604B080BDC046E48CFF1F80B582B0FB
:1036E00000AF0200FB1D1A70064BFA1D1278110084
:1036F0001F220A40012191400A001A60C046BD46BF
:1037000002B080BD00E100E0B0B582B000AF0200C1
:103710003960FB1D1A70FB1D1B787F2B32D92F4C93
:10372000FB1D1B781A000F231340083B99082B4AF6
:10373000FB1D1B7818000F230340083B9B08063332
:103740009B00D31804331B68FA1D12781000032263
:103750000240D200FF2090400200D2431A403B6852
:103760009B01FF201840FB1D1B781D0003232B40ED
:10377000DB00984003001A438B1D9B00E3180433C1
:103780001A6027E0164CFB1D1B785BB29B0814499E
:10379000FA1D127852B29208C03292005258F91DA6
:1037A0000978080003210140C900FF20884001007A
:1037B000C94311403A689201FF201040FA1D127867
:1037C000150003222A40D200904002000A43C03371
:1037D0009B001A51C046BD4602B0B0BD00ED00E0EE
:1037E00000E100E080B586B000AFF860B9607A60B3
:1037F0001723FB1801221A70044B00229A72172318
:10380000FB181B781800BD4606B080BDCC8AFF1F90
:1038100080B586B000AFF860B9607A601723FB18F6
:1038200001221A70BB685B68002B10D0BB685A6815
:10383000194B1B6819001000FCF770FE0B1E06D117
:10384000F868002300220221FEF744FF1CE0134B1E
:103850001B79DBB2012B17D1104B9B79DBB2012B0B
:1038600012D1BB681B68002B07D1BB681B68002BFB
:103870000AD1BB685B68002B06D1074B1B68084A5E
:10388000F8680321FEF744FF1723FB181B78180084
:10389000BD4606B080BDC046F088FF1FCC8AFF1F22
:1038A000F48AFF1F80B586B000AFF860B9607A6017
:1038B0001723FB1801221A700F4B1B79DBB2012B67
:1038C00013D10D4B9B79DBB2012B0ED1BB685A682B
:1038D0000A4B1A60094B1B68002B06D1084B1B686A
:1038E000084AF8680321FEF713FF1723FB181B781B
:1038F0001800BD4606B080BDCC8AFF1F748BFF1F29
:10390000F088FF1FF48AFF1F80B582B000AF786097
:1039100039603B68002B01D1042303E03B68034A74
:103920001A6000231800BD4602B080BD7C8BFF1FCB
:1039300080B584B000AFF860B9607A603B603B68E6
:10394000002B03D07B681B68082B01D9052303E0FB
:103950003B68034A1A6000231800BD4604B080BDCE
:10396000848BFF1F80B582B000AF78600A00FB1C1B
:103970001A7005231800BD4602B080BD90B589B00D
:1039800000AFF860B9607A603B601F23FB18052226
:103990001A70754BBB61BB689B88002B03D01F233B
:1039A000FB181B78DCE0BB685B78232B00D9D1E0E7
:1039B0009A006E4BD3181B689F46BB685B88012B2F
:1039C00003D13B686A4A1A6006E0BB685B88022B39
:1039D00002D13B68674A1A601F23FB1800221A7045
:1039E000BBE0BB685B88012B06D13B68604A1A606C
:1039F0007B6802221A6009E0BB685B88022B05D154
:103A00003B685C4A1A607B6802221A601F23FB181D
:103A100000221A70A1E03B68574A1A607B680722AF
:103A20001A601F23FB1800221A7096E03B68524A66
:103A30001A601F23FB1800221A708EE01F23FB1848
:103A400000221A70BB685B88DAB2BB699A73BB69E3
:103A50009B7B1A000223134007D0BB691B8A0222FA
:103A600013439AB2BB691A8206E0BB691B8A022221
:103A700093439AB2BB691A82BB699B7B1A000123EC
:103A8000134007D0BB691B8A012213439AB2BB695A
:103A90001A8206E0BB691B8A012293439AB2BB6972
:103AA0001A82BB699B7B1A00012313405A1E934163
:103AB000DAB2BB699A72BB69A1221A70BB69202273
:103AC0005A70BB6900229A70BB690022DA70BB6928
:103AD00000221A71BB6900225A71BB6902229A71D5
:103AE000BB690022DA71BB689B88DAB2BB691A71C4
:103AF000BB6908337B61BB691A8A7B691A800A2318
:103B00003B611E4B9B7A002B0CD1BA691F23FC181A
:103B10003B69F8680121FEF7DDFD03002370174BB8
:103B200001229A72BB699B7B1A000123134008D0C3
:103B3000124B1B79DBB2012B0ED1104B01229A7173
:103B40000AE00E4B1B79DBB2012B05D10B4B002297
:103B50009A7101E0C04600E0C0461F23FB181B78A5
:103B60001800BD4609B090BDE08AFF1F9C4F0000C1
:103B7000D88AFF1FDC8AFF1FE888FF1FCC8AFF1F3F
:103B800080B58CB000AFF860B9607A602F23FB1865
:103B900001221A707B68BB62BB68012B02D0092B23
:103BA00009D0ACE0594B1B681800FFF721FC574BBC
:103BB00000221A71A3E07B68002B00D19EE0534BDA
:103BC00001221A71BB6A1A78504BDA71BB6A1B78F2
:103BD000012B00D092E01423FB184D4A1A601423E5
:103BE000FB18FA685A602023FB1800221A71202360
:103BF000FB180322DA702023FB1881229A70434BB2
:103C00005B79022B04D12023FB1810221A8003E0D9
:103C10002023FB1810221A803C4B1B681422BA1870
:103C2000202179181800FEF78DFD1423FB18394A5E
:103C30001A601423FB18FA685A602023FB1800222C
:103C40001A712023FB180222DA702023FB1882222B
:103C50009A702E4B5B79022B05D12023FB18802212
:103C600092001A8003E02023FB1840221A80274B81
:103C70001B681422BA18202179181800FEF762FD7B
:103C80001423FB18244A1A601423FB18FA685A609C
:103C90002023FB1800221A712023FB180222DA705D
:103CA0002023FB1803229A70184B5B79022B05D155
:103CB0002023FB18802292001A8003E02023FB18A7
:103CC00040221A80114B1B681422BA18202179183F
:103CD0001800FEF737FD0D4B5B79022B04D10F4B1B
:103CE000802292001A6002E00C4B40221A600B4BBB
:103CF0001B680B4AF8680321FEF70AFDC0462F2314
:103D0000FB181B781800BD460CB080BDCC8AFF1F85
:103D1000E537000011380000A5380000F088FF1FCB
:103D2000F48AFF1F80B582B000AF786008001100F0
:103D3000FB1C021C1A70BB1C0A1C1A70BB1C1B78D3
:103D4000002B08D0FB1C1A787B6811001800FEF7C6
:103D5000DEFD030007E0FB1C1A787B6811001800E9
:103D6000FEF7F0FD03001800BD4602B080BD000064
:103D700080B500AF034B1B681800FEF701F9C04681
:103D8000BD4680BDCC8AFF1F80B582B000AFFB1D51
:103D900000221A70FCF77CFD1D49AA235B008622D5
:103DA000D205CA5000233B6008E03B68194A94469C
:103DB000634400221A703B6801333B603B68164A3B
:103DC0009342F2DD154B00225A71144B00221A71F6
:103DD000124B00221A60114A114B19000020FEF705
:103DE00078FB031E0ED1FB1D01221A70032118203F
:103DF000FFF78AFC1820FFF771FC084B1B681800BE
:103E0000FEF737FCFB1D1B781800BD4602B080BDD5
:103E100000A0074000001040FF070000CC8AFF1FF1
:103E2000813B000090B585B000AF0B23FB18012249
:103E30001A70224B1B79DBB2012B3AD11F4B9B79B5
:103E4000DBB2012B35D11E4B1B68002B1CD01C4B49
:103E50001B68013318D00023FB600DE0194B1B6871
:103E6000591C184A11601849FA688A181178174ABB
:103E7000D154FB680133FB60FA68114B1B689A420E
:103E8000ECD30F4B00221A600E4B1B68002B10D096
:103E90000C4B1B687B600B4B00221A60074B1868A9
:103EA0000B23FC187B68094A0221FEF713FC030070
:103EB0002370C046BD4605B090BDC046CC8AFF1FEA
:103EC000748BFF1F788BFF1FF48AFF1F348BFF1F3B
:103ED00000BEFDE700B5EFF3058003210840800137
:103EE000054908430068000004D0044909684018E7
:103EF0000068804700BD00000440024008ED00E07B
:103F0000120003D0013A8B5C8354FBD1704712003E
:103F100002D0013A8154FCD170477047EFF310830F
:103F200072B6034A1068034A116883F31088704719
:103F3000F0500740F450074090B58BB000AF02003E
:103F4000FB1D1A703B1D0A1C1A803B1D1B88002B91
:103F500003D13B1D012252421A80EFF31083FB6014
:103F6000FB687B6272B62D4B2D4A5A602B4B3A1D73
:103F700012889A60FB1D1B78082B28D89A00294BC1
:103F8000D3181B689F46254B274A1A6023E0234B12
:103F9000264A1A601FE0214B254A1A601BE01F4B7E
:103FA000244A1A6017E01D4B234A1A6013E01B4B8A
:103FB000224A1A600FE0194B214A1A600BE0174B96
:103FC000204A1A6007E0154B1F4A1A6003E0134BA2
:103FD000154A1A60C046FFF7A1FF03000C00BB6141
:103FE000FC61FFF79BFF03000C003B617C613969BA
:103FF0007A69BB69FC69C91AA2410B001400002C44
:1040000003D1EED13F2B00D8EBE77B6ABB60BB68E6
:1040100083F31088C046BD460BB090BD00600740DA
:1040200020C528D92C50000020200000A02000002E
:10403000A0300000A0210000A0310000A02200005C
:10404000A0320000A0230000A033000080B582B0A1
:1040500000AF0200FB1D1A70064BFA1D127811000A
:104060001F220A40012191400A001A60C046BD4645
:1040700002B080BD00E100E0B0B582B000AF020048
:104080003960FB1D1A70FB1D1B787F2B32D92F4C1A
:10409000FB1D1B781A000F231340083B99082B4A7D
:1040A000FB1D1B7818000F230340083B9B080633B9
:1040B0009B00D31804331B68FA1D127810000322EA
:1040C0000240D200FF2090400200D2431A403B68D9
:1040D0009B01FF201840FB1D1B781D0003232B4074
:1040E000DB00984003001A438B1D9B00E318043348
:1040F0001A6027E0164CFB1D1B785BB29B08144925
:10410000FA1D127852B29208C03292005258F91D2C
:104110000978080003210140C900FF208840010000
:10412000C94311403A689201FF201040FA1D1278ED
:10413000150003222A40D200904002000A43C033F7
:104140009B001A51C046BD4602B0B0BD00ED00E074
:1041500000E100E080B500AF002000F0A7F9C04604
:10416000BD4680BD80B500AF012000F09FF9C0467C
:10417000BD4680BD80B500AF022000F097F9C04673
:10418000BD4680BD80B586B000AFB9607A603B6047
:104190000F23FB18021C1A700F23FB181B789C229C
:1041A0005A432D4BD3187B617B69903318007B6990
:1041B000103319000023402200F0DEF97B699433AC
:1041C00018007B69503319000023402200F0D4F915
:1041D0007B6998213A6A5A507B69DB68BA68110694
:1041E000E022D2040A408021C9050A431A607B6993
:1041F0005B687A681106F82252050A401A617B69E9
:104200005B687A69526811693A68D204D20C0A4331
:104210001A617B695B687A6952689269C0210903F7
:104220000A439A617B695B687A6952689269802166
:1042300089030A439A617B691B7A5BB202211800E9
:10424000FFF71AFF7B691B7A5BB21800FFF7FEFECF
:10425000C046BD4606B080BDF488FF1F80B584B05F
:1042600000AF02003960FB1D1A70FB1D1B789C22F9
:104270005A432A4BD318BB600E23FB1800221A8026
:10428000BB681B7801225340DBB2002B3BD0BB68DC
:1042900001221A7011E0BB68942298580E23FB1873
:1042A0001B883A68D318190000F0E0F90E23FB18B8
:1042B0001A880E23FB1801321A800E23FB181B8864
:1042C0003A68D3181B78002B04D00E23FB181B88E8
:1042D0003F2BE0D9BB6894229B58114A110018006B
:1042E00000F0C4F9BB6800221A70BB685B68BA684A
:1042F00052689269802109040A439A610D23FB18D0
:1043000000221A7003E00D23FB1801221A700D23FE
:10431000FB181B781800BD4604B080BDF488FF1F51
:104320005050000080B584B000AF39601100FB1D13
:10433000021C1A703B1D0A1C1A80FB1D1B789C2254
:104340005A43234BD318BB60BB681B7801225340F0
:10435000DBB2002B31D0BB6801221A700E23FB1890
:1043600000221A8011E0BB68942298580E23FB1893
:104370001B883A68D318190000F078F90E23FB184F
:104380001A880E23FB1801321A800E23FA183B1DDF
:1043900012881B889A42E6D3BB6800221A70BB6859
:1043A0005B68BA6852689269802109040A439A617D
:1043B0000D23FB1800221A7003E00D23FB180122C5
:1043C0001A700D23FB181B781800BD4604B080BD81
:1043D000F488FF1F90B589B000AF0400B9601000E9
:1043E00019000F23FB18221C1A700C23FB18021C47
:1043F0001A80BB1D0A1C1A800F23FB181B789C22F5
:104400005A43294BD318BB61BB691B780122534027
:10441000DBB2002B44D0BB6901221A70BB69902229
:104420009B58180000F002FA03001A000C23FB1836
:104430001B88934231D31E23FB1800221A8020E0F0
:10444000BB6990229B581722BA181100180000F07F
:104450008BF9031E1ED11723FB181B780A229342E7
:104460001AD01E23FB181B88BA68D3181722BA1853
:1044700012781A701E23FB181A881E23FB180132AB
:104480001A801E23FA180C23FB1812881B889A42E4
:10449000D6D302E0C04600E0C046BB6900221A70D5
:1044A000C046BD4609B090BDF488FF1F80B584B0FA
:1044B00000AF0200FB1D1A70FB1D1B789C225A43A3
:1044C0002B4BD318FB60FB685B685A6980239B0306
:1044D000134020D0FB685B68DB69DAB20B23FB1862
:1044E0001A700B23FB181B780A2293420ED0FB682C
:1044F00090229B580B22BA181100180000F0B6F851
:10450000FB6898229B580120984704E0FB6898229A
:104510009B5800209847FB685B685A6980231B04FE
:10452000134020D0FB685B689A6980231B0413400A
:1045300019D0FB6894229B580A22BA18110018005F
:1045400000F012F9031E06D1FB685B680A22BA1854
:104550001278DA6107E0FB685B68FA685268926972
:1045600004490A409A61C046BD4604B080BDC046B9
:10457000F488FF1FFFFF7FFF80B586B000AFF860B3
:10458000B9601900BB1D1A807B1D0A1C1A70354BBF
:104590001B78132B62D8334B1B781A0013005B0077
:1045A0009B189B00304A9B187B612E4B1B78013374
:1045B000DAB22C4B1A702B4B1B7819002A4A0B00CD
:1045C0005B005B189B00B9689950264B1B7819005B
:1045D000254A0B005B005B189B00D3180433BA1DFF
:1045E00012881A801F4B1B7819001F4A0B005B00B2
:1045F0005B189B00D318063300221A80194B1B78D6
:104600001900194A0B005B005B189B00D318083394
:1046100000221A80134B1B781900134A0B005B0011
:104620005B189B00D3180A3300221A700D4B1B78BD
:1046300019000D4A0B005B005B189B00D3180B336D
:104640007A1D12781A70074B1B781A0013005B0052
:104650009B189B00044A9A18FB681A60C046BD4626
:1046600006B080BD7C8CFF1F8C8BFF1F90B587B080
:1046700000AF786039607B683B613B699B7A0122BF
:104680005340DBB2002B62D03B6901229A723B6936
:10469000DA883B699B889A4251D23B691B891A0090
:1046A0003B69DB88D2183B699B8819001000FCF736
:1046B0001FF80B001A000E23FB181A803B69DB7AE7
:1046C0000A2B31D89A00274BD3181B689F463B69A9
:1046D0001A680E23FB181B88D3183A6812781A70D0
:1046E00022E03B691A680E23FB181B885B00D31875
:1046F0003A6812881A8017E03B691A680E23FB1883
:104700001B889B00D3183A6812681A600CE03B695A
:104710001A680E23FB181B88DB00D2183B685C6804
:104720001B6813605460C0463B69DB8801339AB252
:104730003B69DA801723FB1800221A7003E0172365
:10474000FB1801221A703B6900229A7203E01723BA
:10475000FB1803221A701723FB181B781800BD469C
:1047600007B090BD5450000080B584B000AF7860B1
:1047700039607B68BB60BB689B7A01225340DBB227
:10478000002B46D0BB6801229A72BB68DB88002BE5
:1047900037D0BB68DB7A0A2B0ED89A00224BD3188D
:1047A0001B689F46BB681B68BA6812899B181A78F9
:1047B0003B681A7000E0C046BB68DB88013B9AB2D8
:1047C000BB68DA80BB68DB88002B03D1BB680022A2
:1047D0001A8111E0BB681B8901339AB2BB681A8148
:1047E000BB681A89BB689B8819001000FBF796FE0E
:1047F0000B009AB2BB681A810F23FB1800221A70B3
:1048000003E00F23FB1802221A70BB6800229A7281
:1048100003E00F23FB1803221A700F23FB181B78E9
:104820001800BD4604B080BD8050000080B584B043
:1048300000AF78607B68FB60FB68DB881800BD46D2
:1048400004B080BD80B582B000AF0200FB1D1A70BD
:10485000064BFA1D127811001F220A4001219140D7
:104860000A001A60C046BD4602B080BD00E100E00B
:10487000B0B582B000AF02003960FB1D1A70FB1D9D
:104880001B787F2B32D92F4CFB1D1B781A000F236E
:104890001340083B99082B4AFB1D1B7818000F2377
:1048A0000340083B9B0806339B00D31804331B6866
:1048B000FA1D1278100003220240D200FF2090401F
:1048C0000200D2431A403B689B01FF201840FB1DA9
:1048D0001B781D0003232B40DB00984003001A4384
:1048E0008B1D9B00E31804331A6027E0164CFB1D58
:1048F0001B785BB29B081449FA1D127852B29208D9
:10490000C03292005258F91D097808000321014075
:10491000C900FF2088400100C94311403A68920154
:10492000FF201040FA1D1278150003222A40D20001
:10493000904002000A43C0339B001A51C046BD4656
:1049400002B0B0BD00ED00E000E100E080B500AFD6
:104950000B49B6235B008022D205CA500849BA230E
:104960005B008022D205CA5000F0B4F800F0D2F803
:1049700000F0F0F800F05CF8C046BD4680BDC046CF
:1049800000A0074090B583B000AF0200FB1D1A7075
:10499000BB1D0A1C1A70FB1D1A78FB1D013A1A7008
:1049A0000D4B0D4A1268F91D08780C4980004158DA
:1049B000012088400100C9431140BA1D1078FA1D3A
:1049C0001478064AA400A258904002000A431A60D4
:1049D000C046BD4603B090BD40F00040AC50000062
:1049E00080B582B000AF0200FB1D1A70FB1D1A7863
:1049F000FB1D013A1A700C4B1B69FA1D11780B4A0A
:104A000089008A58012191400A001A40FB1D19783B
:104A1000064B8900CB58DA4013005A425341DBB2AF
:104A20001800BD4602B080BD40F00040BC50000000
:104A300080B500AF234B802252001A61214BC02267
:104A40009200DA601F4BC02292009A601D4B8022B8
:104A500052005A611B4B802252009A61194B8022EE
:104A60005200DA61184B184A526910210A435A6100
:104A7000154B154A526920210A435A61124B124ABA
:104A8000526940210A435A610F4B0F4A52698021F3
:104A90008A435A610C4B10229A600B4B20225A60B9
:104AA0000A4990228023DB058B50094B20221A6192
:104AB00002211C20FFF7DCFE1C20FFF7C3FEC046CE
:104AC000BD4680BD00D00540C0F0004000A00740BA
:104AD0000040024080B500AF0C4B802252009A6229
:104AE0000A4B802252005A62084B802252001A62FE
:104AF000064B80225200DA61054B054A5269F021CB
:104B0000C9000A435A61C046BD4680BD00B0054099
:104B100040F0004080B500AF0C4B0422FF32DA6059
:104B20000A4B0422FF329A60084B0422FF325A607B
:104B3000064B0422FF321A60054B054A52690F21C9
:104B40008A435A61C046BD4680BDC04600B005409C
:104B500040F0004080B500AF0C4B0422FF329A6455
:104B60000A4B0422FF325A64084B0422FF321A64B3
:104B7000064B0422FF32DA63054B054A52690549A8
:104B80000A405A61C046BD4680BDC04600B00540DF
:104B900040F00040FF7FF8FF80B500AF024B034AB2
:104BA0005A60C046BD4680BD0060074002A680B482
:104BB00090B589B000AF544B19000320FFF7BCF942
:104BC000524A84235B00D3587B610C23FB18504A64
:104BD0001168196012791A713B1D4E4A11681960EB
:104BE0009188998092799A7100F098F8FFF7CCF843
:104BF00000F0FEF80023FB611B23FB1800221A7053
:104C00001A23FB1800221A700120FFF7E9FE0300A7
:104C10001A001A23FB181B78934209D01A23FB1899
:104C20001B7801225340DBB2002B01D000F016F9B3
:104C30001A23FC180120FFF7D3FE030023701A2368
:104C4000FB181B785A1E9341DBB201225340DBB2A2
:104C50001A1C01231340DBB219000120FFF792FE5A
:104C60000220FFF7BDFE03005A1E9341DBB2012272
:104C70005340DBB21A1C01231340DBB2190002209F
:104C8000FFF780FE0320FFF7ABFE03005A1E93419F
:104C9000DBB201225340DBB21A1C01231340DBB20A
:104CA00019000320FFF76EFE0420FFF799FE0300B2
:104CB0001A0001235340DBB2002B19D0FB69164ABE
:104CC000934219D91B23FB181B7801225340DBB2F6
:104CD0001A001B23FB18511E8A411A701B23FB1854
:104CE0001B7819000420FFF74DFE0023FB6103E051
:104CF00000210420FFF746FEFB690133FB61FFF74B
:104D000091F8FFF749FF7FE71027000000B0074048
:104D1000904E0000984E00004FC3000080B58AB04E
:104D200000AF3149BA235B008622D205CA50FFF793
:104D30000DFE00F05DF896239B017B612B4B3B61E0
:104D40007B69BB6104237B6246E07B697A6A5343DB
:104D500019003869FBF7E6FB03003B623B6A002B56
:104D600001D101233B627B6A3A6A534319003869D7
:104D7000FBF7D8FB0300FB60FA687B69D31AFB6181
:104D80003B6A01337A6A534319003869FBF7CAFB5F
:104D900003001A007B699A1AFB699A420FDA3B6A90
:104DA00001337A6A534319003869FBF7BBFB0300F0
:104DB0001A007B699B1AFB613B6A01333B62FA690B
:104DC000BB699A4205DCFB69BB617B6ABB603B6ADD
:104DD0007B607B6A01337B627B6A202BB5DDC0463A
:104DE000BD460AB080BDC04600A0074000093D0096
:104DF00080B582B002AF0220044B009334232022FE
:104E00000221FFF7BFF9C046BD4680BD114E00002C
:104E100080B582B000AF0200FB1D1A70FB1D1B782D
:104E2000002B13D102200B4905236422FFF7D2FA8D
:104E3000084B1B78432B09D1064B5B784D2B05D1D2
:104E40000222054B19001000FFF708FAC046BD46C4
:104E500002B080BD808CFF1FA04E000080B584B0E2
:104E600000AF3B1D084A1168196012791A71074B8F
:104E70001B69FB6002203B1D04221900FFF752FA58
:104E8000C046BD4604B080BDA84E0000C0F0004042
:104E900041686F6A00000000207376657465000049
:104EA0007363616E000000002424240D00000000E4
:104EB0004E1D0000981D0000BE1D0000DC1D0000FE
:104EC000001E0000241E0000481E0000641E00009A
:104ED000B61E00004C1F00004C1F00004C1F0000BD
:104EE0004C1F00004C1F0000D61E0000321F0000A7
:104EF0004C1F00004C1F00004C1F00004518000014
:104F00003D190000AB190000E51A0000631C000009
:104F1000111D0000522A0000522A0000B42900008E
:104F2000CA290000102A0000262A0000E0290000FB
:104F3000F82900003C2A0000982A0000662B000097
:104F4000662B0000AE2A0000C82A0000662B000075
:104F5000662B00003A2B0000502B00000E2B0000A7
:104F6000662B0000242B0000C12B0000D12C000078
:104F700000000000D12C000000000000CF2D000038
:104F8000912E000000000000E52E0000412F0000DF
:104F9000C52F0000253000006D300000543B00009C
:104FA000543B0000BA390000E2390000543B0000D5
:104FB000543B0000543B0000543B0000543B0000B5
:104FC000543B0000543B0000543B0000543B0000A5
:104FD000543B0000543B0000543B0000543B000095
:104FE000543B0000543B0000543B0000543B000085
:104FF000543B0000543B0000543B0000543B000075
:10500000543B0000543B0000543B0000543B000064
:10501000543B0000543B0000543B00002C3A00007D
:10502000163A00003C3A0000543B0000863F000066
:105030008E3F0000963F00009E3F0000A63F00000C
:10504000AE3F0000B63F0000BE3F0000C63F00007C
:105050000A000000CE460000CE460000CE4600000A
:10506000E2460000E2460000F8460000F846000074
:10507000F84600000E4700000E4700000E470000F3
:10508000A4470000A4470000A4470000B647000062
:10509000B6470000B6470000B6470000B64700001C
:1050A000B6470000B6470000B64700000A000000FF
:1050B00009000000080000000700000003000000D5
:0C50C000020000000100000000000000E1
:1050CC0000127A001201000202000040C91F940075
:1050DC00010101020001000009024300020100C0AD
:1050EC003209040000010202000005240010010531
:1050FC002401010104240206052406000107058190
:10510C000310000809040100020A000000070582D0
:10511C0002400000070503024000000004030904DC
:10512C0026034D00490052004F0053004C00410033
:10513C00560020004D0049004B0055005300000064
:10514C0000000000000000002A034900510052003A
:10515C0046002F005700490046004900200042003D
:10516C00520041004E004100000000000000000011
:10517C00000000005C88FF1F6088FF1F8888FF1FED
:10518C0004000000260000002A000000B488FF1F65
:10519C00C088FF1F090400005C88FF1F040000008A
:1051AC00CC88FF1F0100000000C2010000000800B5
:1051BC00400000000000000000400C400C0000000B
:1051CC0010A10F40000000000000000000000000D3
:1051DC0000000000000000000000000000000000C3
:1051EC0000000000000000000000000000000000B3
:1051FC0000000000000000000000000000000000A3
:10520C000000000000000000000000000000000092
:10521C000000000000000000000000000000000082
:10522C000000000000000000000000000000000072
:10523C000000000000000000000000000000000062
:10524C000000000000000000000000000000000052
:10525C000000000000500C400D00000014A10F4095
:10526C000000000000000000000000000000000032
:10527C000000000000000000000000000000000022
:10528C000000000000000000000000000000000012
:10529C000000000000000000000000000000000002
:1052AC0000000000000000000000000000000000F2
:1052BC0000000000000000000000000000000000E2
:1052CC0000000000000000000000000000000000D2
:1052DC0000000000000000000000000000000000C2
:1052EC0000000000000000000000000000000000B2
:1052FC00006004402500000018A1074000000000D9
:10530C000000000000000000000000000000000091
:10531C000000000000000000000000000000000081
:10532C000000000000000000000000000000000071
:10533C000000000000000000000000000000000061
:10534C000000000000000000000000000000000051
:10535C000000000000000000000000000000000041
:10536C000000000000000000000000000000000031
:10537C000000000000000000000000000000000021
:08538C00000000000000000019
:04000003000006FDF6
:00000001FF
