:100000000088FF1FFD060000F3080000A90800009B
:1000100000000000000000000000000000000000E0
:100020000000000000000000000000004D0700007C
:1000300000000000000000004D0700004D07000018
:100040004D0700004D0700004D0700004D07000060
:100050004D0700004D0700004D0700004D07000050
:100060004D0700004D0700004D0700004D07000040
:100070002D0B00003D0B00004D0700004D07000058
:100080004D0700004D0700004D0700004D07000020
:100090004D0700004D0700004D0700004D07000010
:1000A0001D1200004D0700004D0700004D07000025
:1000B000AD080000AD080000AD080000AD0800006C
:1000C0004D0700004D0700004D0700004D070000E0
:1000D0004D0700004D0B00004D0700004D070000CC
:1000E0004D0700004D0700004D0700004D070000C0
:1000F0004D0700004D0700004D0700004D070000B0
:100100004D0700004D0700004D0700004D0700009F
:100110004D0700004D0700004D0700004D0700008F
:100120004D0700004D0700004D0700004D0700007F
:100130004D0700004D0700004D0700004D0700006F
:10040000C0DEFACEABBAFEEDFFFFFFFFBE3BFFFF43
:10041000002243088B4274D303098B425FD3030A43
:100420008B4244D3030B8B4228D3030C8B420DD356
:10043000FF22090212BA030C8B4202D312120902E4
:1004400065D0030B8B4219D300E0090AC30B8B4222
:1004500001D3CB03C01A5241830B8B4201D38B03D0
:10046000C01A5241430B8B4201D34B03C01A524175
:10047000030B8B4201D30B03C01A5241C30A8B42B8
:1004800001D3CB02C01A5241830A8B4201D38B02A3
:10049000C01A5241430A8B4201D34B02C01A524147
:1004A000030A8B4201D30B02C01A5241CDD2C309B9
:1004B0008B4201D3CB01C01A524183098B4201D335
:1004C0008B01C01A524143098B4201D34B01C01A20
:1004D000524103098B4201D30B01C01A5241C30898
:1004E0008B4201D3CB00C01A524183088B4201D307
:1004F0008B00C01A524143088B4201D34B00C01AF3
:100500005241411A00D20146524110467047FFE75E
:1005100001B5002000F0F0F802BDC0460029F7D078
:1005200076E7704703460B437FD4002243088B4293
:1005300074D303098B425FD3030A8B4244D3030B6A
:100540008B4228D3030C8B420DD3FF22090212BA2F
:10055000030C8B4202D31212090265D0030B8B42AB
:1005600019D300E0090AC30B8B4201D3CB03C01A95
:100570005241830B8B4201D38B03C01A5241430B70
:100580008B4201D34B03C01A5241030B8B4201D360
:100590000B03C01A5241C30A8B4201D3CB02C01ACB
:1005A0005241830A8B4201D38B02C01A5241430A43
:1005B0008B4201D34B02C01A5241030A8B4201D332
:1005C0000B02C01A5241CDD2C3098B4201D3CB01D9
:1005D000C01A524183098B4201D38B01C01A524188
:1005E00043098B4201D34B01C01A524103098B428C
:1005F00001D30B01C01A5241C3088B4201D3CB0077
:10060000C01A524183088B4201D38B00C01A524159
:1006100043088B4201D34B00C01A5241411A00D209
:1006200001465241104670475DE0CA0F00D0494272
:10063000031000D34042534000229C4603098B42E2
:100640002DD3030A8B4212D3FC22890112BA030A6A
:100650008B420CD3890192118B4208D389019211EC
:100660008B4204D389013AD0921100E08909C30971
:100670008B4201D3CB01C01A524183098B4201D373
:100680008B01C01A524143098B4201D34B01C01A5E
:10069000524103098B4201D30B01C01A5241C308D6
:1006A0008B4201D3CB00C01A524183088B4201D345
:1006B0008B00C01A5241D9D243088B4201D34B0060
:1006C000C01A5241411A00D20146634652415B10A2
:1006D000104601D34042002B00D549427047634683
:1006E0005B1000D3404201B5002000F005F802BDC8
:1006F0000029F8D016E770477047C04600F028F888
:100700000B480C490C4A121A00F0E6F80B4800217D
:100710000B4A121A00F0E7F80A48A5210A4A121AF1
:1007200000F0E1F800F0B4F801F000F8FEE7000096
:100730000088FF1F041B0000648AFF1F008CFF1F3E
:10074000A890FF1F0080FF1F0088FF1F00BEFDE76D
:1007500080B500AF454BFA2292009A60434B444A61
:100760001A60444982235B0080225202CA504149E8
:1007700084235B008A225200CA503E4A80235B00D9
:100780000F21D150C0463B4A80235B00D2588023C2
:100790005B041340F7D0374AC1239B003649D15040
:1007A000344AC2239B000021D150324AC0239B000F
:1007B0000721D150C0462F4AC0239B00D258802326
:1007C0005B041340F7D02B492C4AC0239B028B506B
:1007D000284AC123DB002A49D150264AC023DB0026
:1007E0002849D150C046234AC023DB00D258802379
:1007F0005B041340F7D01F4B234A5A61C0461D4B80
:100800001A69F0231B051A40C023DB049A42F6D173
:10081000184A80239B000021D150C046154A8023EE
:100820009B00D25880235B041340F7D111498123E8
:100830009B0080225202CA500E4A82239B00012153
:10084000D1500C4A80239B000721D150C046094A51
:1008500080239B00D25880235B041340F7D0054BC4
:100860000A4A9A61C046BD4680BDC0460060074046
:10087000A021000000B007400100010004060000B4
:100880000103080003000304020001060300000244
:1008900080B500AF024B034A1A60C046BD4680BD1A
:1008A000A490FF1F00A24A0400BEFDE700B5EFF3CD
:1008B00005800321084080010549084300680000C5
:1008C00004D00449096840180068804700BD000052
:1008D0000440024008ED00E0120003D0013A8B5CB6
:1008E0008354FBD17047120002D0013A8154FCD1ED
:1008F00070477047EFF3108372B6034A1068034ADB
:10090000116883F310887047F0500740F450074097
:1009100090B58BB000AF0200FB1D1A703B1D0A1C86
:100920001A803B1D1B88002B03D13B1D0122524224
:100930001A80EFF31083FB60FB687B6272B62D4B6D
:100940002D4A5A602B4B3A1D12889A60FB1D1B786A
:10095000082B28D89A00294BD3181B689F46254B93
:10096000274A1A6023E0234B264A1A601FE0214BD6
:10097000254A1A601BE01F4B244A1A6017E01D4BE2
:10098000234A1A6013E01B4B224A1A600FE0194BEE
:10099000214A1A600BE0174B204A1A6007E0154BFA
:1009A0001F4A1A6003E0134B154A1A60C046FFF74E
:1009B000A1FF03000C00BB61FC61FFF79BFF03007C
:1009C0000C003B617C6139697A69BB69FC69C91AB1
:1009D000A2410B001400002C03D1EED13F2B00D814
:1009E000EBE77B6ABB60BB6883F31088C046BD46FB
:1009F0000BB090BD0060074020C528D9181A000030
:100A000020200000A0200000A0300000A021000055
:100A1000A0310000A0220000A0320000A0230000AE
:100A2000A033000080B582B000AF0200FB1D1A7039
:100A3000064BFA1D127811001F220A400121914035
:100A40000A001A60C046BD4602B080BD00E100E069
:100A5000B0B582B000AF02003960FB1D1A70FB1DFB
:100A60001B787F2B32D92F4CFB1D1B781A000F23CC
:100A70001340083B99082B4AFB1D1B7818000F23D5
:100A80000340083B9B0806339B00D31804331B68C4
:100A9000FA1D1278100003220240D200FF2090407D
:100AA0000200D2431A403B689B01FF201840FB1D07
:100AB0001B781D0003232B40DB00984003001A43E2
:100AC0008B1D9B00E31804331A6027E0164CFB1DB6
:100AD0001B785BB29B081449FA1D127852B2920837
:100AE000C03292005258F91D0978080003210140D4
:100AF000C900FF2088400100C94311403A689201B3
:100B0000FF201040FA1D1278150003222A40D2005F
:100B1000904002000A43C0339B001A51C046BD46B4
:100B200002B0B0BD00ED00E000E100E080B500AF34
:100B3000002000F0A7F9C046BD4680BD80B500AFDB
:100B4000012000F09FF9C046BD4680BD80B500AFD2
:100B5000022000F097F9C046BD4680BD80B586B042
:100B600000AFB9607A603B600F23FB18021C1A705B
:100B70000F23FB181B789C225A432D4BD3187B6103
:100B80007B69903318007B691033190000234022E1
:100B900000F0DEF97B69943318007B69503319004B
:100BA0000023402200F0D4F97B6998213A6A5A5018
:100BB0007B69DB68BA681106E022D2040A40802112
:100BC000C9050A431A607B695B687A681106F822D6
:100BD00052050A401A617B695B687A69526811693B
:100BE0003A68D204D20C0A431A617B695B687A695D
:100BF00052689269C02109030A439A617B695B6864
:100C00007A6952689269802189030A439A617B69F3
:100C10001B7A5BB202211800FFF71AFF7B691B7A6F
:100C20005BB21800FFF7FEFEC046BD4606B080BDB1
:100C30000088FF1F80B584B000AF02003960FB1D43
:100C40001A70FB1D1B789C225A432A4BD318BB6099
:100C50000E23FB1800221A80BB681B780122534028
:100C6000DBB2002B3BD0BB6801221A7011E0BB68DD
:100C7000942298580E23FB181B883A68D318190041
:100C800000F0E0F90E23FB181A880E23FB1801323E
:100C90001A800E23FB181B883A68D3181B78002B88
:100CA00004D00E23FB181B883F2BE0D9BB6894228D
:100CB0009B58114A1100180000F0C4F9BB680022CB
:100CC0001A70BB685B68BA6852689269802109042F
:100CD0000A439A610D23FB1800221A7003E00D23CA
:100CE000FB1801221A700D23FB181B781800BD4653
:100CF00004B080BD0088FF1F3C1A000080B584B09E
:100D000000AF39601100FB1D021C1A703B1D0A1C4C
:100D10001A80FB1D1B789C225A43234BD318BB60BF
:100D2000BB681B7801225340DBB2002B31D0BB687B
:100D300001221A700E23FB1800221A8011E0BB68F2
:100D4000942298580E23FB181B883A68D318190070
:100D500000F078F90E23FB181A880E23FB180132D5
:100D60001A800E23FA183B1D12881B889A42E6D37C
:100D7000BB6800221A70BB685B68BA6852689269E7
:100D8000802109040A439A610D23FB1800221A707E
:100D900003E00D23FB1801221A700D23FB181B78AA
:100DA0001800BD4604B080BD0088FF1F90B589B013
:100DB00000AF0400B960100019000F23FB18221CBB
:100DC0001A700C23FB18021C1A80BB1D0A1C1A8007
:100DD0000F23FB181B789C225A43294BD318BB6165
:100DE000BB691B7801225340DBB2002B44D0BB69A6
:100DF00001221A70BB6990229B58180000F002FA79
:100E000003001A000C23FB181B88934231D31E23C6
:100E1000FB1800221A8020E0BB6990229B58172201
:100E2000BA181100180000F08BF9031E1ED1172309
:100E3000FB181B780A2293421AD01E23FB181B882A
:100E4000BA68D3181722BA1812781A701E23FB1822
:100E50001A881E23FB1801321A801E23FA180C234D
:100E6000FB1812881B889A42D6D302E0C04600E0E5
:100E7000C046BB6900221A70C046BD4609B090BD8D
:100E80000088FF1F80B584B000AF0200FB1D1A7000
:100E9000FB1D1B789C225A432B4BD318FB60FB682D
:100EA0005B685A6980239B03134020D0FB685B6812
:100EB000DB69DAB20B23FB181A700B23FB181B78C3
:100EC0000A2293420ED0FB6890229B580B22BA183C
:100ED0001100180000F0B6F8FB6898229B5801201A
:100EE000984704E0FB6898229B5800209847FB68CD
:100EF0005B685A6980231B04134020D0FB685B6841
:100F00009A6980231B04134019D0FB6894229B58D4
:100F10000A22BA181100180000F012F9031E06D1B7
:100F2000FB685B680A22BA181278DA6107E0FB688E
:100F30005B68FA685268926904490A409A61C0463F
:100F4000BD4604B080BDC0460088FF1FFFFF7FFF85
:100F500080B586B000AFF860B9601900BB1D1A807B
:100F60007B1D0A1C1A70354B1B78132B62D8334B30
:100F70001B781A0013005B009B189B00304A9B18DB
:100F80007B612E4B1B780133DAB22C4B1A702B4B42
:100F90001B7819002A4A0B005B005B189B00B9689C
:100FA0009950264B1B781900254A0B005B005B18F3
:100FB0009B00D3180433BA1D12881A801F4B1B786C
:100FC00019001F4A0B005B005B189B00D318063307
:100FD00000221A80194B1B781900194A0B005B007C
:100FE0005B189B00D318083300221A80134B1B7820
:100FF0001900134A0B005B005B189B00D3180A33DF
:1010000000221A700D4B1B7819000D4A0B005B0073
:101010005B189B00D3180B337A1D12781A70074B9C
:101020001B781A0013005B009B189B00044A9A1857
:10103000FB681A60C046BD4606B080BDF08CFF1F3D
:10104000008CFF1F90B587B000AF786039607B6877
:101050003B613B699B7A01225340DBB2002B62D09B
:101060003B6901229A723B69DA883B699B889A4204
:1010700051D23B691B891A003B69DB88D2183B6956
:101080009B8819001000FFF733FB0B001A000E239A
:10109000FB181A803B69DB7A0A2B31D89A00274B60
:1010A000D3181B689F463B691A680E23FB181B88E0
:1010B000D3183A6812781A7022E03B691A680E2336
:1010C000FB181B885B00D3183A6812881A8017E057
:1010D0003B691A680E23FB181B889B00D3183A68DB
:1010E00012681A600CE03B691A680E23FB181B8813
:1010F000DB00D2183B685C681B6813605460C04614
:101100003B69DB8801339AB23B69DA801723FB180D
:1011100000221A7003E01723FB1801221A703B69A2
:1011200000229A7203E01723FB1803221A70172378
:10113000FB181B781800BD4607B090BD401A000090
:1011400080B584B000AF786039607B68BB60BB68F5
:101150009B7A01225340DBB2002B46D0BB680122B0
:101160009A72BB68DB88002B37D0BB68DB7A0A2B0E
:101170000ED89A00224BD3181B689F46BB681B6889
:10118000BA6812899B181A783B681A7000E0C0464A
:10119000BB68DB88013B9AB2BB68DA80BB68DB883E
:1011A000002B03D1BB6800221A8111E0BB681B89A8
:1011B00001339AB2BB681A81BB681A89BB689B88E5
:1011C00019001000FFF7AAF90B009AB2BB681A8148
:1011D0000F23FB1800221A7003E00F23FB180222D2
:1011E0001A70BB6800229A7203E00F23FB180322D7
:1011F0001A700F23FB181B781800BD4604B080BD81
:101200006C1A000080B584B000AF78607B68FB602A
:10121000FB68DB881800BD4604B080BD80B582B095
:1012200000AF094B84229A58FB1D8021525C1A7032
:10123000FB1D1B780122134001D000F065F8C04669
:10124000BD4602B080BDC046D489FF1F80B584B0C2
:1012500000AF02003960FB1D1A700F23FB1801223A
:101260001A70FB1D1B78122B43D89A00244BD318FD
:101270001B689F46234B84229A5880235B000021E1
:10128000D154204B84229A581E4B842159588423D0
:101290005B00CB5CDBB210210B43D9B284235B0033
:1012A000D154184B84229B58164A842152589421B9
:1012B000525CD2B201210A43D1B2942299540F2335
:1012C000FB1800221A7015E00E4B84229A580D4B21
:1012D0008421595884235B00CB5CDBB210218B4303
:1012E000D9B284235B00D1540F23FB1800221A705B
:1012F00000E0C046C0461800BD4604B080BDC046F0
:10130000981A0000D489FF1F80B584B000AF0E4B3F
:1013100001229A700C4B84229B58802201219954FF
:101320003B1D00221A603B1D10221A723B1D002239
:101330005A723B1D00225A603B1D180000F006F84F
:10134000C046BD4604B080BDD489FF1F90B585B0AE
:1013500000AF78607B681A7A0F23FB1804210A40DB
:101360001A700E23FB1801221A707B681B7A102B4F
:101370000AD1074B01229A700E23FC187B681800D3
:1013800000F008F803002370C046BD4605B090BDCC
:10139000D489FF1F80B582B000AF7860074B01226F
:1013A0009A7000210E20FFF751FF044B00229A7023
:1013B000C0461800BD4602B080BDC046D489FF1F9C
:1013C00080B582B000AF0200FB1D1A70064BFA1DFB
:1013D000127811001F220A40012191400A001A6070
:1013E000C046BD4602B080BD00E100E0B0B582B0AD
:1013F00000AF02003960FB1D1A70FB1D1B787F2BAC
:1014000032D92F4CFB1D1B781A000F231340083BC9
:1014100099082B4AFB1D1B7818000F230340083B3B
:101420009B0806339B00D31804331B68FA1D1278FF
:10143000100003220240D200FF2090400200D2435D
:101440001A403B689B01FF201840FB1D1B781D00C4
:1014500003232B40DB00984003001A438B1D9B00A5
:10146000E31804331A6027E0164CFB1D1B785BB2AF
:101470009B081449FA1D127852B29208C0329200A9
:101480005258F91D0978080003210140C900FF20C6
:1014900088400100C94311403A689201FF20104082
:1014A000FA1D1278150003222A40D2009040020053
:1014B0000A43C0339B001A51C046BD4602B0B0BDBE
:1014C00000ED00E000E100E080B500AF0B49B6237D
:1014D0005B008022D205CA500849BA235B008022F3
:1014E000D205CA5000F0B4F800F0D2F800F0F0F8DD
:1014F00000F05CF8C046BD4680BDC04600A0074075
:1015000090B583B000AF0200FB1D1A70BB1D0A1C12
:101510001A70FB1D1A78FB1D013A1A700D4B0D4A0B
:101520001268F91D08780C49800041580120884054
:101530000100C9431140BA1D1078FA1D1478064AFB
:10154000A400A258904002000A431A60C046BD465B
:1015500003B090BD40F00040E41A000080B582B0B6
:1015600000AF0200FB1D1A70FB1D1A78FB1D013A2B
:101570001A700C4B1B69FA1D11780B4A89008A58A6
:10158000012191400A001A40FB1D1978064B890081
:10159000CB58DA4013005A425341DBB21800BD4623
:1015A00002B080BD40F00040F41A000080B500AFEA
:1015B000234B802252001A61214BC0229200DA6034
:1015C0001F4BC02292009A601D4B802252005A612C
:1015D0001B4B802252009A61194B80225200DA6123
:1015E000184B184A526910210A435A61154B154A83
:1015F000526920210A435A61124B124A5269402112
:101600000A435A610F4B0F4A526980218A435A613B
:101610000C4B10229A600B4B20225A600A499022F0
:101620008023DB058B50094B20221A6102211C20EC
:10163000FFF7DCFE1C20FFF7C3FEC046BD4680BDA1
:1016400000D00540C0F0004000A00740004002402C
:1016500080B500AF0C4B802252009A620A4B802268
:1016600052005A62084B802252001A62064B8022B6
:101670005200DA61054B054A5269F021C9000A435C
:101680005A61C046BD4680BD00B0054040F00040F4
:1016900080B500AF0C4B0422FF32DA600A4B042203
:1016A000FF329A60084B0422FF325A60064B042234
:1016B000FF321A60054B054A52690F218A435A616D
:1016C000C046BD4680BDC04600B0054040F0004069
:1016D00080B500AF0C4B0422FF329A640A4B0422FF
:1016E000FF325A64084B0422FF321A64064B04226C
:1016F000FF32DA63054B054A526905490A405A61CF
:10170000C046BD4680BDC04600B0054040F0004028
:10171000FF7FF8FF80B500AF024B034A5A60C04616
:10172000BD4680BD0060074002A680B490B587B07A
:1017300000AF504B19000320FFF7EAF80C23FB1809
:101740004D4A1168196012791A713B1D4B4A116894
:1017500019609188998092799A7100F093F800F05D
:10176000FBF800237B611323FB1800221A7012235D
:10177000FB1800221A700120FFF7F0FE03001A0088
:101780001223FB181B78934209D01223FB181B78F5
:1017900001225340DBB2002B01D000F013F91223D9
:1017A000FC180120FFF7DAFE030023701223FB1858
:1017B0001B785A1E9341DBB201225340DBB21A1C44
:1017C00001231340DBB219000120FFF799FE02202C
:1017D000FFF7C4FE03005A1E9341DBB201225340BF
:1017E000DBB21A1C01231340DBB219000220FFF701
:1017F00087FE0320FFF7B2FE03005A1E9341DBB2BF
:1018000001225340DBB21A1C01231340DBB2190042
:101810000320FFF775FE0420FFF7A0FE03001A0067
:1018200001235340DBB2002B19D07B69144A934249
:1018300019D91323FB181B7801225340DBB21A007D
:101840001323FB18511E8A411A701323FB181B78AF
:1018500019000420FFF754FE00237B6103E0002100
:101860000420FFF74DFE7B6901337B61FFF752FFD8
:1018700081E7C04610270000F8190000001A000098
:101880004FC3000080B58AB000AF3149BA235B0076
:101890008622D205CA50FFF717FE00F05DF89623A6
:1018A0009B017B612B4B3B617B69BB6104237B62AA
:1018B00046E07B697A6A534319003869FEF732FEC5
:1018C00003003B623B6A002B01D101233B627B6A30
:1018D0003A6A534319003869FEF724FE0300FB609F
:1018E000FA687B69D31AFB613B6A01337A6A534316
:1018F00019003869FEF716FE03001A007B699A1A70
:10190000FB699A420FDA3B6A01337A6A5343190042
:101910003869FEF707FE03001A007B699B1AFB611A
:101920003B6A01333B62FA69BB699A4205DCFB6999
:10193000BB617B6ABB603B6A7B607B6A01337B6215
:101940007B6A202BB5DDC046BD460AB080BDC046CF
:1019500000A0074000093D0080B582B002AF022020
:10196000044B0093342320220221FFF7F7F8C046EE
:10197000BD4680BD7919000080B582B000AF02007D
:10198000FB1D1A70FB1D1B78002B13D102200B4985
:1019900005236422FFF70AFA084B1B78432B09D171
:1019A000064B5B784D2B05D10222054B1900100028
:1019B000FFF740F9C046BD4602B080BD4090FF1F12
:1019C000081A000080B584B000AF3B1D084A1168BA
:1019D000196012791A71074B1B69FB6002203B1DCD
:1019E00004221900FFF78AF9C046BD4604B080BD45
:1019F000101A0000C0F0004041686F6A000000004B
:101A000020737665746500007363616E00000000EA
:101A10002424240D000000005E0900006609000077
:101A20006E090000760900007E09000086090000AA
:101A30008E090000960900009E0900000A000000BF
:101A4000A6100000A6100000A6100000BA100000AA
:101A5000BA100000D0100000D0100000D01000001C
:101A6000E6100000E6100000E61000007C11000007
:101A70007C1100007C1100008E1100008E1100000E
:101A80008E1100008E1100008E1100008E110000DA
:101A90008E1100008E11000074120000C8120000A8
:101AA000F2120000F2120000F2120000F212000026
:101AB000F2120000F2120000F2120000F212000016
:101AC000F2120000F2120000F2120000F212000006
:101AD000F2120000F2120000F2120000F2120000F6
:101AE000F21200000A0000000900000008000000D7
:101AF00007000000030000000200000001000000D9
:041B000000000000E1
:101B04000000000000400C400C00000010A10F4039
:101B140000000000000000000000000000000000C1
:101B240000000000000000000000000000000000B1
:101B340000000000000000000000000000000000A1
:101B44000000000000000000000000000000000091
:101B54000000000000000000000000000000000081
:101B64000000000000000000000000000000000071
:101B74000000000000000000000000000000000061
:101B84000000000000000000000000000000000051
:101B94000000000000000000000000000000000041
:101BA40000500C400D00000014A10F400000000084
:101BB4000000000000000000000000000000000021
:101BC4000000000000000000000000000000000011
:101BD4000000000000000000000000000000000001
:101BE40000000000000000000000000000000000F1
:101BF40000000000000000000000000000000000E1
:101C040000000000000000000000000000000000D0
:101C140000000000000000000000000000000000C0
:101C240000000000000000000000000000000000B0
:101C340000000000000000000000000000600440FC
:101C44002500000018A1074000000000000000006B
:101C54000000000000000000000000000000000080
:101C64000000000000000000000000000000000070
:101C74000000000000000000000000000000000060
:101C84000000000000000000000000000000000050
:101C94000000000000000000000000000000000040
:101CA4000000000000000000000000000000000030
:101CB4000000000000000000000000000000000020
:101CC4000000000000000000000000000000000010
:101CD4000000000000000000000000000000000000
:101CE40000000000000000000000000000000000F0
:101CF40000000000000000000000000000000000E0
:101D040000000000000000000000000000000000CF
:101D140000000000000000000000000000000000BF
:101D240000000000000000000000000000000000AF
:101D3400000000000000000000000000000000009F
:101D4400000000000000000000000000000000008F
:101D54000000000000000000005005400090FF1F3C
:041D6400008EFF1FCF
:04000003000006FDF6
:00000001FF
