:100000000088FF1F1104000007060000BD05000066
:1000100000000000000000000000000000000000E0
:10002000000000000000000000000000610400006B
:1000300000000000000000006104000061040000F6
:10004000610400006104000061040000610400001C
:10005000610400006104000061040000610400000C
:1000600061040000610400006104000061040000FC
:1000700061040000610400006104000061040000EC
:1000800061040000610400006104000061040000DC
:1000900061040000610400006104000061040000CC
:1000A00061040000610400006104000061040000BC
:1000B000C1050000C1050000C1050000C105000028
:1000C000610400006104000061040000610400009C
:1000D000610400006104000061040000610400008C
:1000E000610400006104000061040000610400007C
:1000F000610400006104000061040000610400006C
:10010000610400006104000061040000610400005B
:10011000610400006104000061040000610400004B
:10012000610400006104000061040000610400003B
:10013000610400006104000061040000610400002B
:10040000C0DEFACEABBAFEEDFFFFFFFFBE3BFFFF43
:1004100000F028F80B480C490C4A121A00F0E6F8D4
:100420000B4800210B4A121A00F0E7F80A48A521F0
:100430000A4A121A00F0E1F800F0B4F800F088F966
:10044000FEE700000088FF1F8C0700000088FF1FE8
:100450000088FF1F0488FF1F0080FF1F0088FF1F08
:1004600000BEFDE780B500AF454BFA2292009A60CE
:10047000434B444A1A60444982235B008022520263
:10048000CA50414984235B008A225200CA503E4A26
:1004900080235B000F21D150C0463B4A80235B0084
:1004A000D25880235B041340F7D0374AC1239B0006
:1004B0003649D150344AC2239B000021D150324AE0
:1004C000C0239B000721D150C0462F4AC0239B0068
:1004D000D25880235B041340F7D02B492C4AC02309
:1004E0009B028B50284AC123DB002A49D150264A5F
:1004F000C023DB002849D150C046234AC023DB007B
:10050000D25880235B041340F7D01F4B234A5A6113
:10051000C0461D4B1A69F0231B051A40C023DB049B
:100520009A42F6D1184A80239B000021D150C04640
:10053000154A80239B00D25880235B041340F7D1D7
:10054000114981239B0080225202CA500E4A822305
:100550009B000121D1500C4A80239B000721D150E0
:10056000C046094A80239B00D25880235B04134075
:10057000F7D0054B0A4A9A61C046BD4680BDC046C9
:1005800000600740A021000000B00740010001000A
:100590000406000001030800030003040200010632
:1005A0000300000280B500AF024B034A1A60C04648
:1005B000BD4680BD0088FF1F00A24A0400BEFDE7C3
:1005C00000B5EFF305800321084080010549084389
:1005D0000068000004D0044909684018006880479A
:1005E00000BD00000440024008ED00E0120003D00E
:1005F000013A8B5C8354FBD17047120002D0013A60
:100600008154FCD170477047EFF3108372B6034AF0
:100610001068034A116883F310887047F050074050
:10062000F450074090B58BB000AF0200FB1D1A706C
:100630003B1D0A1C1A803B1D1B88002B03D13B1D50
:10064000012252421A80EFF31083FB60FB687B6249
:1006500072B62D4B2D4A5A602B4B3A1D12889A6068
:10066000FB1D1B78082B28D89A00294BD3181B6830
:100670009F46254B274A1A6023E0234B264A1A60DF
:100680001FE0214B254A1A601BE01F4B244A1A60C9
:1006900017E01D4B234A1A6013E01B4B224A1A60D5
:1006A0000FE0194B214A1A600BE0174B204A1A60E1
:1006B00007E0154B1F4A1A6003E0134B154A1A60F6
:1006C000C046FFF7A1FF03000C00BB61FC61FFF710
:1006D0009BFF03000C003B617C6139697A69BB694F
:1006E000FC69C91AA2410B001400002C03D1EED101
:1006F0003F2B00D8EBE77B6ABB60BB6883F31088B5
:10070000C046BD460BB090BD0060074020C528D94B
:100710006807000020200000A0200000A03000009A
:10072000A0210000A0310000A0220000A0320000A3
:10073000A0230000A033000080B500AF024B034AA5
:100740005A60C046BD4680BD0060074002A680B426
:1007500080B500AFFA239B0019000320FFF762FF6A
:10076000FFF7EAFFFCE70000720600007A060000CF
:10077000820600008A060000920600009A06000029
:0C078000A2060000AA060000B20600005D
:0400000300000411E4
:00000001FF
